:1000000011308A003D2900000A108A100A11820767
:100010003134323433342F34343435343634783464
:100020003734383439342D346E3430343D342B3455
:10003000D724CC294F2720252E00C320CC2155269C
:1000400041224F294100D232F33A6C3A61326F10AB
:100050003D005A3084008313000803193D28013005
:10006000F800F701F70B3228F80B31284A30F70077
:10007000F70B38283B28800B2F280800831609101F
:1000800089100911003086008312091083160910A7
:1000900089100911FF3086008312891400000915A8
:1000A00000000608E00009110D30F700F70B562894
:1000B00000308316860083126008F8007808E0009C
:1000C000E01B46285E1C09105E1809140000891008
:1000D000000009115F088600000009156F2809114A
:1000E0000D30F700F70B72280800831609108910ED
:1000F00009110030860083120911891009100F3090
:10010000DA002920CC014C08023C031C9028DE01B7
:100110003830DF003E200530DA002920CC0A832861
:10012000DE010C30DF003E20DE010630DF003E2025
:10013000DE010130DF003E20DE010230DF003E2024
:10014000A0018A110A164F298A110A165229DC01C8
:100150005B08A000DA08031DB0280130DA00B028DF
:10016000DB080319D8285B0BBB288030DC0001308A
:100170005A02DC07D8285B08023C031DC528403022
:10018000DC0001305A02DC07D8285B08033C031D61
:10019000CF281430DC0001305A02DC07D8285B0875
:1001A000043C031DD8285430DC0001305A02DC071F
:1001B0005C088038DD00DE015D08DF003E200800BD
:1001C00059080C3A0319EB28063A0319F328023AA6
:1001D000031908290D29DE010130DF003E2002301D
:1001E000DA0029201329A00A2008003C031CFC285F
:1001F0002008043C031C02290130DA002008DB003F
:10020000A7200729A0010130DA00DB00A72013296D
:10021000DE011030DF003E2013290130DE005908D6
:10022000DF003E2013290800831603178C170C14D7
:100230000000000083120C087F39031958290313AA
:10024000CC0003170D080313CD0003170F08031389
:10025000CE004C08D900E0204D0803178D00031391
:100260004E0803178F0083168C170C140000000033
:1002700083120C0D0E0D7F39031958290313CC007E
:1002800003170D080313CD0003170F080313CE0047
:100290004C08D900E0204D0803178D0003134E08C9
:1002A00003178F008D0A03198F0A031314290317EC
:1002B00003130800831681138312CC01A10A0319CA
:1002C000C0292408FC3E03188329043EC929F030C4
:1002D000831686000E30831286008329F030831641
:1002E00086000D30831286008329F0308316860045
:1002F0000B30831286008329F03083168600073086
:10030000831286008329221C8F290608F039F03CCD
:10031000031D8E2922102308CC00A301BF29060843
:10032000F039F03C0319BA2906081039031D9A293F
:10033000CD01AE2906082039031DA1290130CD00C9
:10034000AE2906084039031DA8290230CD00AE2988
:1003500006088039031DAE290330CD004D0DF7008E
:10036000F70DFC30F705770824070420F800A300F8
:100370002214BF29A40A2408043C0319A401A101E2
:100380002308CC00F0308316860083124C08F80056
:1003900008000A148A100A11820767296E29752934
:1003A0007C29A501A508031DDC295A217808A50090
:1003B0000230DA002920D2290230DA00292025086B
:1003C000A60025082602031DEC295A217808A6005C
:1003D0000230DA002920E1292508F8008A110A16DE
:1003E00096298E30F70083162C08F8002B08F900A8
:1003F000FA01F808031D062A7908F800F901083007
:10040000F702F808031D062AF7010E2A0310F81B4D
:100410000D2AF90DF80DF703062AF81383120800C8
:1004200083162808AF002C08AF06AF1F1C2A031143
:100430000310A81B03144F2A2808AF002B08B00094
:100440002708B00203192A2AAF1F4F2A0308013ACE
:1004500083004F2A2C08B0002808B0020319362A5E
:10046000AF1F4F2A0308013A83004F2A2D08B0001E
:100470002908B0020319422AAF1F4F2A0308013A84
:1004800083004F2A2E08B0002A08B00203194E2A12
:10049000AF1F4F2A0308013A83004F2A031083122B
:1004A0000800831627080319172BB3002B0803191C
:1004B000172BB302031C612A7F30B3070318172BD5
:1004C000672A8130B302031C172B0319172B33083B
:1004D000F700F801F901FA01B2012808B100B117DB
:1004E0002908B0002A08AF001930B3002E08AF0267
:1004F00003188A2A0130B00203188A2AB1020318AD
:100500008A2AB20203188A2AB20AB10AB00A2E084D
:10051000AF07BC2A2D08B0020318A52A0130B1028A
:100520000318A52AB2020318A52AB20AB10A2D0897
:10053000B0072E08AF07031CBC2AB00A031DBC2A53
:10054000B10A031DBC2AB20ABC2A2C088038B102A9
:100550000318BB2A0130B2020318BB2AB20A2C08C6
:100560008038B1072D08B007031C992AB10A031D72
:10057000992AB20A992A7A14B30BBF2ACA2A0310FD
:10058000AF0DB00DB10DB20D0310FA0DF90DF80D50
:10059000B40D762A341CD22A0310F80CF90CFA0C8C
:1005A000B40CD52AF7030319172BB41BFE2A03102A
:1005B000AF0DB00DB10DB20D2E08AF020318EA2A2F
:1005C0000130B0020318EA2AB1020318EA2AB20283
:1005D000031C0D2B2D08B0020318F52A0130B102BF
:1005E0000318F52AB202031C0D2B2C088038B10227
:1005F0000318FE2A0130B202031C0D2BFA0A031D58
:100600000D2BF90A031D0D2BF80A031D0D2BF70AFC
:100610000319172BF80CF90CFA0C2808B3002C0856
:10062000B306B31F152BF8171B2BF8131B2BF70161
:10063000F801F901FA01831208008E30F7008316E1
:100640002708F7022808F9002908F800F917F70821
:100650000319352B0310F908031D312BF808031972
:10066000352BF90CF80CF70B2A2BA81F3C2BF8099B
:10067000F909F80A0319F90A831208008030831C6B
:10068000442B8316B00683128316B501B6012C08DD
:10069000B4003008B4062B080319322CB300F7005D
:1006A0002F0803193B2CB3020319D72B031C952BDE
:1006B0003008B900B9173108B8003208B700B601E0
:1006C0000310B90CB80CB70CB60CB30B5F2BB41FEE
:1006D0006C2B35144F2C351033103516AE3084008A
:1006E0008313642C3512B41B7F2B331C8A2BB90C5B
:1006F000B80CB70CB60CF70A03194A2C8A2BB91B95
:100700008D2B0310B60DB70DB80DB90DF7030319F6
:100710004A2C7F2B3517F72B35132C08B400B41F48
:10072000932BB917432CB913432C2F08B300F700B0
:100730002B08B3022C08B900B9172D08B8002E08F1
:10074000B700B6010310B90CB80CB70CB60CB30B5C
:10075000A12BB41FAE2BB5144F2CB5103310B5160A
:10076000B23084008313642CB512B41BC12B331C2C
:10077000CC2BB90CB80CB70CB60CF70A03194A2CE1
:10078000CC2BB91BCF2B0310B60DB70DB80DB90D7F
:10079000F70303194A2CC12BB517F72BB5133008F3
:1007A000B400B41FD52BB917432CB913432C300810
:1007B000B900B9173108B8003208B700B41FE42BEC
:1007C000B91335154F2C3511B6013310AE308400F6
:1007D0008313642CB41B0D2C2C08B400331CF72B92
:1007E000B90CB80CB70CB60CF70A03194A2CB61F93
:1007F000082CB70A031D082CB80A031D082CB90AD7
:10080000031D082CB90CB80CB70CF70A03194A2CB5
:10081000351B8C2BB51BCE2B2C2C8030B906B91F69
:10082000152C4F2C3008B400222C2C08B400B90829
:10083000031D222CB808031D222CB708031D222CEF
:10084000F701432CB91B2C2C0310B60DB70DB80DB6
:10085000B90DF70B222C4A2CB41F302CB917432C9E
:10086000B913432C2F08F7003008B9003108B8003D
:100870003208B700432C2B08F7002C08B9002D08CC
:10088000B8002E08B7003908F8003808F900370812
:10089000FA00822CF701F801F901FA01822CB60165
:1008A000B709B809B909B609B60A031D5D2CB70A1C
:1008B000031D5D2CB80A0319B90A35186B2BB5183E
:1008C000AD2B3519E32B122C0008B707031C6E2C37
:1008D000B80A031D6E2CB90A0319331484030008E7
:1008E000B807031C762CB90A0319331484030008D3
:1008F000801F803AB90703183314351A722BB51AC2
:10090000B42BEA2B83120800831627080319F52C51
:10091000AF002B080319F52CAF070318962C7F3076
:10092000AF02031CF52C0319F52C9A2C8130AF076C
:100930000318F52C2F08F700F801F901FA0128082F
:10094000B300B3172908B2002A08B1001830AF006D
:10095000B001311CC32C2E08FA07031CB52CF90A70
:10096000031DB52CF80A0319B0172D08F907031C4D
:10097000BC2CF80A0319B0172C08A900A9172908DC
:10098000F8070318B017B00DF80CF90CFA0CB30CFB
:10099000B20CB10C0310AF0BA82C0130F7070318F1
:1009A000F52CF81BDA2CB30DFA0DF90DF80DF70341
:1009B0000319F52CB31FEB2CFA0A031DEB2CF90AD3
:1009C000031DEB2CF80A031DEB2CF80CF90CFA0CA8
:1009D000F70A0319F52C2808B0002C08B006B01F40
:1009E000F32CF817F92CF813F92CF701F801F90199
:1009F000FA0183120800831626107508FE00740899
:100A0000FD007308FC007208FB007508AA0074085A
:100A1000A9007308A8007208A700AE01AD01AC01DF
:100A2000AB0183121022031C1B2D831626147C0895
:100A3000803AFC0083127E088316AA007D08A90074
:100A40007C08A8007B08A700AE01AD01AC018E3088
:100A5000AB008312102203182F2D031D4C2D7E088E
:100A60008316AA007D08A9007C08A8007B08A700BF
:100A700083121D2379088316AC007808AB0083121B
:100A8000F1217A088316A3007908A2007808A10052
:100A90007708A000242E83127E088316AA007D0802
:100AA000A9007C08A8007B08A7008030AE00963023
:100AB000AD001830AC009630AB0083121022031C3E
:100AC0001B2E7E088316AA007D08A9007C08A800BA
:100AD0007B08A700AE01AD01AC018E30AB008312E4
:100AE00051227A088316AA007908A9007808A8007C
:100AF0007708A70083121D2379088316A5007808BC
:100B0000A4007E08AA007D08A9007C08A8007B0834
:100B1000A700AE01AD01AC018E30AB0083125122B3
:100B200077088316A7007808A8007908A9007A0832
:100B3000AA002508AC002408AB008312F12183141D
:100B400083162A08AE002908AD002808AC00270843
:100B5000AB007A08B2007908B1007808B0007708D5
:100B6000AF0083123E238316AA01A901A8018E308B
:100B7000A7007A08AE007908AD007808AC007708C5
:100B8000AB00831284247A08FE007908FD007808FF
:100B9000FC007708FB0083162508AC002408AB0096
:100BA0008312F1218316AA01A901A8018E30A700A2
:100BB0007A08AE007908AD007808AC007708AB0081
:100BC000831284247A088316A3007908A200780887
:100BD000A1007708A0007E08AA007D08A9007C0873
:100BE000A8007B08A70083121D2379088316AC0098
:100BF0007808AB008312F121831083162308AE001E
:100C00002208AD002108AC002008AB007A08B20031
:100C10007908B1007808B0007708AF0083123E234E
:100C20007A088316A3007908A2007808A100770843
:100C3000A000242E83127E088316A3007D08A20044
:100C40007C08A1007B08A0007E08AA007D08A900FE
:100C50007C08A8007B08A70083121D23790883164F
:100C6000AC007808AB008312F12183147E08831650
:100C7000AE007D08AD007C08AC007B08AB007A08B4
:100C8000B2007908B1007808B0007708AF0083128D
:100C90003E237A08FE007908FD007808FC007708FA
:100CA000FB008316261C572E2108803AA1007E08DF
:100CB000AA007D08A9007C08A8007B08A700AE0157
:100CC000AD01AC01AB01831210220319A42E8316CF
:100CD000261C862EF608031D862E83142308AE00DC
:100CE0002208AD002108AC002008AB00B201B10120
:100CF000B0017F30AF0083123E237A088316A30031
:100D00007908A2007808A1007708A0002618A32E71
:100D1000760BA32E83102308AE002208AD00210815
:100D2000AC002008AB00B201B101B0017F30AF00D0
:100D300083123E237A088316A3007908A20078085C
:100D4000A1007708A000831275088316AA00740812
:100D5000A9007308A8007208A700AE01AD01AC019C
:100D6000AB0183121022031DBB2E8316A301A20127
:100D7000A101A001831283162008F7002108F800C2
:100D80002208F9002308FA00831208006508831678
:100D9000AA00831264088316A900831263088316CD
:100DA000A800831262088316A700AE01AD01AC0152
:100DB000AB01831210220319DA2F61088316AA00EF
:100DC000831260088316A90083125F088316A800A7
:100DD00083125E088316A700831265088316AE008F
:100DE000831264088316AD00831263088316AC0077
:100DF000831262088316AB00831251227708EA003F
:100E00007808EB007908EC007A08ED006D0883168D
:100E1000AA0083126C088316A90083126B0883163C
:100E2000A80083126A088316A700AE01AD01AC01C9
:100E3000AB0183121022031C5A2F61088316AA00EB
:100E4000831260088316A90083125F088316A80026
:100E500083125E088316A700831265088316AE000E
:100E6000831264088316AD00831263088316AC00F6
:100E7000831262088316AB00831251227708EA00BE
:100E80007808EB007908EC007A08ED006D08F100B5
:100E90006C08F0006B08EF006A08EE007108F500BE
:100EA0007008F4006F08F3006E08F2000130F600DD
:100EB000FB24952F61088316AA008312600883160D
:100EC000A90083125F088316A80083125E088316A8
:100ED000A700831265088316AE0083126408831688
:100EE000AD00831263088316AC0083126208831678
:100EF000AB00831251227708EA007808EB007908EA
:100F0000EC007A08ED006D08F1006C08F0006B0849
:100F1000EF006A08EE007108F5007008F4006F0831
:100F2000F3006E08F200F601FB247A08E900790864
:100F3000E8007808E7007708E60069088316AA0049
:100F4000831268088316A900831267088316A80015
:100F5000831266088316A700831265088316AE0005
:100F6000831264088316AD00831263088316AC00F5
:100F7000831262088316AB008312842483146108F1
:100F80008316AE00831260088316AD0083125F08DB
:100F90008316AC0083125E088316AB007A08B20099
:100FA0007908B1007808B0007708AF0083123E23BB
:060FB000DA2FDA2F080021
:101000008E30F70083162108F8002008F900FA0155
:10101000A11F0F28F809F909F90A0319F80AF808B5
:10102000031D1C287908F800F9010830F702F808B8
:10103000031D1C28F70125280310F81B2328F90D90
:10104000F80DF7031C28A11FF81383120800650888
:10105000E9006408E8006308E7006208E600690840
:101060008316AA00831268088316A90083126708F2
:101070008316A800831266088316A700AE01AD018F
:10108000AC017F30AB008A11831210228A1503193C
:10109000002BFC016630FB007B08840083137C1866
:1010A00083177E308000831469088316AE00831294
:1010B00068088316AD00831267088316AC0083129C
:1010C00066088316AB00B201B101B0017F30AF00FA
:1010D0008A1183123E238A157708FB007808FC00EA
:1010E0007908FD007A08FE00831069088316AE00B7
:1010F000831268088316AD00831267088316AC005C
:10110000831266088316AB00B201B101B0017F30D3
:10111000AF008A1183123E238A157E088316AA0027
:101120007D08A9007C08A8007B08A7007A08AE000B
:101130007908AD007808AC007708AB008A118312FB
:1011400051228A157A08E9007908E8007808E70052
:101150007708E60069088316AA00831268088316D8
:10116000A900831267088316A800831266088316F5
:10117000A700831269088316AE00831268088316DD
:10118000AD00831267088316AC00831266088316CD
:10119000AB008A11831284248A157A08F500790835
:1011A000F4007808F3007708F200BC308316AA0038
:1011B0002430A9006730A8007D30A7007508AE0074
:1011C0007408AD007308AC007208AB008A1183127A
:1011D00084248A157708FB007808FC007908FD0054
:1011E0007A08FE0083107A088316AE007908AD00F5
:1011F0007808AC007708AB00E330B200E430B1000F
:101200009030B0008230AF008A1183123E238A15DD
:101210007A08ED007908EC007808EB007708EA001E
:101220006D088316AA0083126C088316A900831226
:101230006B088316A80083126A088316A700750836
:10124000AE007408AD007308AC007208AB008A11E0
:10125000831284248A157708FB007808FC0079083B
:10126000FD007A08FE0083107A088316AE00790824
:10127000AD007808AC007708AB001C30B2008730B6
:10128000B1005730B0008330AF008A1183123E2383
:101290008A157A08ED007908EC007808EB007708E9
:1012A000EA006D088316AA0083126C088316A90051
:1012B00083126B088316A80083126A088316A7009E
:1012C0007508AE007408AD007308AC007208AB007E
:1012D0008A11831284248A157708FB007808FC00A1
:1012E0007908FD007A08FE0083107A088316AE00A4
:1012F0007908AD007808AC007708AB00AB30B200DD
:10130000E130B1009E30B0008330AF008A1183120B
:101310003E238A157A08ED007908EC007808EB0086
:101320007708EA008316AA01A901A8017F30A70067
:101330007508AE007408AD007308AC007208AB000D
:101340008A11831284248A157708FB007808FC0030
:101350007908FD007A08FE0083107A088316AE0033
:101360007908AD007808AC007708AB00B430B20063
:101370002A30B1008230B000AF008A1183123E23C0
:101380008A157A08F1007908F0007808EF007708EC
:10139000EE0071088316AA007008A90083126F0876
:1013A0008316A80083126E088316A7007508AE0086
:1013B0007408AD007308AC007208AB008A11831288
:1013C00084248A157708FB007808FC007908FD0062
:1013D0007A08FE0083107A088316AE007908AD0003
:1013E0007808AC007708AB008030B2003E30B10026
:1013F0000630B0008330AF008A1183123E238A1575
:101400007A08F1007908F0007808EF007708EE001C
:1014100071088316AA007008A90083126F0883164A
:10142000A80083126E088316A7007508AE00740822
:10143000AD007308AC007208AB008A1183128424DB
:101440008A157708FB007808FC007908FD007A0807
:10145000FE0083107A088316AE007908AD00780884
:10146000AC007708AB00AB30B200E130B1009E3089
:10147000B0008230AF008A1183123E238A157A08A9
:10148000F1007908F0007808EF007708EE006908AD
:101490008316AA00831268088316A90083126708BE
:1014A0008316A800831266088316A70083126D08AE
:1014B0008316AE0083126C088316AD0083126B088E
:1014C0008316AC0083126A088316AB008A1183125C
:1014D00084248A157708FB007808FC007908FD0051
:1014E0007A08FE008316AA007908A9007808A800E7
:1014F0007708A7007108AE007008AD0083126F086E
:101500008316AC0083126E088316AB008A11831217
:1015100051228A157A08ED007908EC007808EB0072
:101520007708EA00FC016230FB007B08840083132B
:101530007C1883177E300002F600F61FB22A760868
:10154000003C8316A101A000A01BA1038312002070
:101550007708EE007808803AEF007908F0007A0802
:10156000F100C22A8316A1017608A000A01BA103E6
:10157000831200207A08F1007908F0007808EF0063
:101580007708EE0071088316AA007008A90083127C
:101590006F088316A80083126E088316A700183000
:1015A000AE007230AD003130AC007E30AB008A113D
:1015B000831284248A1583106D088316AE0083126B
:1015C0006C088316AD0083126B088316AC0083127F
:1015D0006A088316AB007A08B2007908B10078086F
:1015E000B0007708AF008A1183123E238A157A086B
:1015F000ED007908EC007808EB007708EA00042B8E
:10160000ED01EC01EB01EA016A08F7006B08F80054
:101610006C08F9006D08FA00080065088316AA0036
:10162000831264088316A900831263088316A80036
:10163000831262088316A7001830AE007230AD0026
:101640003130AC007E30AB008A11831251228A15F2
:101650007A088316AA007908A9007808A8007708F4
:10166000A7008A1183121D238A157808F2007310CF
:101670006508E9006408E8006308E7006208E6001E
:1016800065088316AA00831264088316A9008312D2
:1016900063088316A800831262088316A700AE01B0
:1016A000AD01AC01AB018A11831210228A15031C13
:1016B0005F2B7314F209F20A6708803AE700ED0124
:1016C000EC01EB01EA01FC016A30FB007B088400BD
:1016D00083137C1883177F30720780006908831694
:1016E000AA00831268088316A9008312670883166C
:1016F000A800831266088316A7001830AE00723067
:10170000AD003130AC007E30AB008A118312512223
:101710008A157708FB007808FC007908FD007A0834
:10172000FE008316A1017208A000A01BA103831272
:10173000002083147E088316AE007D08AD007C086F
:10174000AC007B08AB007A08B2007908B1007808D9
:10175000B0007708AF008A1183123E238A157A08F9
:10176000E9007908E8007808E7007708E6007C30AF
:101770008316AA008830A9005930A8007230A7004B
:10178000831269088316AE00831268088316AD00C1
:10179000831267088316AC00831266088316AB00B9
:1017A0008A11831284248A157708FB007808FC00CC
:1017B0007908FD007A08FE0083107A088316AE00CF
:1017C0007908AD007808AC007708AB00E030B200D3
:1017D0009730B1002630B0007530AF008A11831207
:1017E0003E238A157A08F1007908F0007808EF00A6
:1017F0007708EE0071088316AA007008A90083120A
:101800006F088316A80083126E088316A700831240
:1018100069088316AE00831268088316AD00831230
:1018200067088316AC00831266088316AB008A1122
:10183000831284248A157708FB007808FC00790855
:10184000FD007A08FE0083107A088316AE0079083E
:10185000AD007808AC007708AB00C430B2001D3092
:10186000B1001E30B0007830AF008A1183123E23E1
:101870008A157A08F1007908F0007808EF007708F7
:10188000EE0071088316AA007008A90083126F0881
:101890008316A80083126E088316A70083126908B6
:1018A0008316AE00831268088316AD0083126708A2
:1018B0008316AC00831266088316AB008A1183126C
:1018C00084248A157708FB007808FC007908FD005D
:1018D0007A08FE0083107A088316AE007908AD00FE
:1018E0007808AC007708AB005E30B2005030B10031
:1018F0006330B0007A30AF008A1183123E238A151C
:101900007A08F1007908F0007808EF007708EE0017
:1019100071088316AA007008A90083126F08831645
:10192000A80083126E088316A70083126908831625
:10193000AE00831268088316AD0083126708831611
:10194000AC00831266088316AB008A1183128424CC
:101950008A157708FB007808FC007908FD007A08F2
:10196000FE0083107A088316AE007908AD0078086F
:10197000AC007708AB001A30B200FE30B100753011
:10198000B0007C30AF008A1183123E238A157A089A
:10199000F1007908F0007808EF007708EE00710890
:1019A0008316AA007008A90083126F088316A80086
:1019B00083126E088316A700831269088316AE008F
:1019C000831268088316AD00831267088316AC0083
:1019D000831266088316AB008A11831284248A1549
:1019E0007708FB007808FC007908FD007A08FE0003
:1019F00083107A088316AE007908AD007808AC0031
:101A00007708AB001830B2007230B1003130B0004E
:101A10007E30AF008A1183123E238A157A08F100C6
:101A20007908F0007808EF007708EE00690883165F
:101A3000AA00831268088316A90083126708831618
:101A4000A800831266088316A7007108AE0070080C
:101A5000AD0083126F088316AC0083126E088316E4
:101A6000AB008A11831284248A1583108316AE0179
:101A7000AD01AC017F30AB007A08B2007908B1004B
:101A80007808B0007708AF008A1183123E238A15C8
:101A90006D088316AA0083126C088316A9008312AE
:101AA0006B088316A80083126A088316A7007A08B9
:101AB000AE007908AD007808AC007708AB008A1159
:101AC000831284248A157A08ED007908EC007808DE
:101AD000EB007708EA00731C8F2D8316AA01A90179
:101AE000A8017F30A70083126D088316AE00831211
:101AF0006C088316AD0083126B088316AC0083124A
:101B00006A088316AB008A11831251228A157A085B
:101B1000ED007908EC007808EB007708EA006A0825
:101B2000F7006B08F8006C08F9006D08FA0008006F
:101B300001304C02D100A8014C0828020318E52FFF
:101B400038302807840083130008CD008316AC01C9
:101B5000831251088316AB008A118312F1218A1572
:101B60007708D2007808D3007908D4007A08D50025
:101B7000D901D8012030D7008230D6005508DD00C9
:101B80005408DC005308DB005208DA0059088316B9
:101B9000AA00831258088316A900831257088316D7
:101BA000A800831256088316A700AE01AD01AC0150
:101BB000AB018A11831210228A15031CDB2E5D08EB
:101BC000E1005C08E0005B08DF005A08DE00E50188
:101BD000E401E3017F30E2008A11C6268A15770806
:101BE000DE007808DF007908E0007A08E10083165B
:101BF000AA00831260088316A90083125F08831667
:101C0000A80083125E088316A700AE01AD01AC01E7
:101C1000AB018A11831210228A15031DDB2E5D0889
:101C2000E1005C08E0005B08DF005A08DE00E50127
:101C3000E401E3018030E2008A11C6268A157708A4
:101C4000DE007808DF007908E0007A08E1008316FA
:101C5000AA00831260088316A90083125F08831606
:101C6000A80083125E088316A700AE01AD01AC0187
:101C7000AB018A11831210228A15031D8C2E56087F
:101C8000DE005708803ADF005808E0005908E100FC
:101C9000E5006008E4005F08E3005E08E20027203A
:101CA0007708DE007808DF007908E0007A08E100B4
:101CB0008316AA00831260088316A90083125F08A6
:101CC0008316A80083125E088316A70083125D089E
:101CD0008316AE0083125C088316AD0083125B0886
:101CE0008316AC0083125A088316AB008A11831244
:101CF00084248A157708DE007808DF007908E00080
:101D00007A08E100E5006008E4005F08E3005E088F
:101D1000E2000D23A22FDA2E5608DE005708803A83
:101D2000DF005808E0005908E100E5006008E40021
:101D30005F08E3005E08E20027207708DE007808ED
:101D4000DF007908E0007A08E1008316AA00831218
:101D500060088316A90083125F088316A800831207
:101D60005E088316A70083125D088316AE008312F7
:101D70005C088316AD0083125B088316AC008312E7
:101D80005A088316AB008A11831284248A157708B7
:101D9000DE007808DF007908E0007A08E100E5005D
:101DA0006008E4005F08E3005E08E2000D23803075
:101DB000F806A22FA22F59088316AA0083125808EA
:101DC0008316A900831257088316A80083125608A9
:101DD0008316A700AE01AD01AC01AB018A118312DD
:101DE00010228A15031C2A2F5D08E1005C08E00020
:101DF0005B08DF005A08DE00E501E401E3017F3003
:101E0000E2008A11C6268A157708DE007808DF000E
:101E10007908E0007A08E1008316AA0083126008BE
:101E20008316A90083125F088316A80083125E0838
:101E30008316A700AE01AD01AC01AB018A1183127C
:101E400010228A1503192A2FF701F801F901FA0166
:101E5000A22FA22F59088316AA00831258088316AE
:101E6000A900831257088316A80083125608831608
:101E7000A700AE01AD01AC01AB018A1183121022A3
:101E80008A15031D5E2F5D088316AA0083125C0865
:101E90008316A90083125B088316A80083125A08D0
:101EA0008316A700AE01AD01AC01AB018A1183120C
:101EB00010228A1503185E2F031DA22F5908E50072
:101EC0005808E4005708E3005608E2002720770886
:101ED000DE007808DF007908E0007A08E100831668
:101EE000AA00831260088316A90083125F08831674
:101EF000A80083125E088316A70083125D0883166C
:101F0000AE0083125C088316AD0083125B08831653
:101F1000AC0083125A088316AB008A118312842402
:101F20008A157708DE007808DF007908E0007A0873
:101F3000E100E5006008E4005F08E3005E08E200FD
:101F40000D23A22F7708D2007808D3007908D40097
:101F50007A08D5008316AC0183124D088316AB00B6
:101F60008A118312F1218A157A088316AA0079084A
:101F7000A9007808A8007708A700831255088316DF
:101F8000AE00831254088316AD00831253088316E3
:101F9000AC00831252088316AB008A11831284248A
:101FA0008A157A088316AA007908A9007808A8007B
:101FB0007708A7008A1183121D238A157808CE009E
:101FC0004E08CF07D103A80A9C2D4F08633C031885
:101FD000ED2F01304F07D000EF2F4F08D0005008F1
:041FE000F8000800FD
:10200000F701F801F901FA01E101E201E301E4015C
:1020100060085F045E045D0403193E282030E5007B
:102020000310D90DDA0DDB0DDC0DE10DE20DE30D32
:10203000E40D60086402031D27285F086302031D86
:1020400027285E086202031D27285D086102031C21
:1020500038285D08E1025E08031C5E0FE2025F089B
:10206000031C5F0FE3026008031C600FE40203140B
:10207000F70DF80DF90DFA0DE50B1028613084000D
:10208000831308000408D1005008D30003196B28FB
:102090004F088316AA0083124E088316A9008312E4
:1020A0004D088316A80083124C088316A700AE01C2
:1020B000AD012030AC008230AB000A1283128424C0
:1020C0000A167A08CF007908CE007808CD00770884
:1020D000CC00D30B48284F08DC004E08DB004D082D
:1020E000DA004C08D9005908B63CD900FA015A0860
:1020F000DD00DA170310DA0CDB0CDC0CFA0CF90C3F
:10210000F80CF70CD90B7A28DD1F9128F709F8098C
:10211000F909FA09F70A0319F80A0319F90A031960
:10212000FA0A7A08CF007908CE007808CD0077083F
:10213000CC00CF1FA828D103D116CC09CD09CE09D8
:10214000CF09CC0A0319CD0A0319CE0A0319CF0A05
:102150003B30D8009A30D700CA30D600D5010A30BB
:10216000D30050080319D10A4F08DC004E08DB00E9
:102170004D08DA004C08D9005808E0005708DF0085
:102180005608DE005508DD0000200008CC00840A57
:102190000008CD00840A0008CE00840A0008CF00A1
:1021A000FD308407F708031DE828500A530203197D
:1021B000E82851080319EA280F3953020319E228C5
:1021C00003182229D11B2229511BEA2820301C295F
:1021D0002030D105D11EFA28D1125008031DD10399
:1021E0007708D1002D30D9000A12E0200A165108D4
:1021F000F700D10150085302031D0A297708D100C6
:102200002E30D9000A12E0200A165108F7002030BB
:10221000D10500303030D11E1C29D1125008031DC9
:10222000D1037708D1002D30D9000A12E0200A1618
:102230005108F700D1013030F7077708D9000A12AA
:10224000E0200A165808DC005708DB005608DA00C0
:102250005508D900E001DF01DE010A30DD00002071
:102260007A08D8007908D7007808D6007708D50012
:10227000D30BB4288A110A169429840183131F30C2
:10228000830583161F149F141F159F1107309C0090
:102290008312A1012210A301A4010A1275280A16B3
:1022A0000A12A4280A16DE010230DF000A123E20BC
:1022B0000A160430DA000130DB000A12A7200A16E1
:1022C000183003178D0000308F000A1203131421F9
:1022D0000A160330DA000230DB000A12A7200A16C1
:1022E0001D3003178D0000308F000A1203131421D4
:1022F0000A160330CC00C830DA000A1229200A1668
:10230000CC0B7B29DE010130DF000A123E200A16C9
:10231000AA012A08133C031C942938302A07840098
:1023200083138001AA0A89290A12D1290A1678087A
:10233000AB00383029078400831330302B02800033
:102340002B083D3C031DA6290030A72901302B088E
:102350002B3C031DAD290030AE2901302B082D3C4C
:10236000031DB4290030B52901302B08783C031D2A
:10237000BB290030BC2901302B082F3C031DC2298A
:102380000030C32901302B086E3C0319CC292B08DF
:10239000D9000A12E0200A162B082B3A0319DA2971
:1023A000063A0319082A553A0319362A573A0319E7
:1023B000642A922ADE010130DF000A123E200A164A
:1023C0002908CC000A128A1598250A168A11831644
:1023D000AC017808AB000A128312F1210A167A08C0
:1023E000AF007908AE007808AD007708AC00013086
:1023F000A700AA012A08133C031C052A38302A0723
:10240000840083138001AA0AFA29A9019429922A37
:10241000DE010130DF000A123E200A162908CC0036
:102420000A128A1598250A168A118316AC017808B3
:10243000AB000A128312F1210A167A08AF0079085C
:10244000AE007808AD007708AC000230A700AA0102
:102450002A08133C031C332A38302A0784008313CC
:102460008001AA0A282AA9019429922ADE010130B2
:10247000DF000A123E200A162908CC000A128A152B
:1024800098250A168A118316AC017808AB000A1247
:102490008312F1210A167A08AF007908AE00780895
:1024A000AD007708AC000330A700AA012A08133C4E
:1024B000031C612A38302A07840083138001AA0A8A
:1024C000562AA9019429922ADE010130DF000A125E
:1024D0003E200A162908CC000A128A1598250A16E9
:1024E0008A118316AC017808AB000A128312F1211D
:1024F0000A167A08AF007908AE007808AD007708B0
:10250000AC000430A700AA012A08133C031C8F2A40
:1025100038302A07840083138001AA0A842AA9017B
:102520009429922A2B083D3C031D8B2C0130270255
:10253000FC3E0318672C043EAF2CDE010130DF00A7
:102540000A123E200A162908CC000A128A1598257C
:102550000A168A118316AC017808AB000A1283129E
:10256000F1210A16CE010408CD004E10831B4E1433
:1025700083147A088316AE007908AD007808AC00A1
:102580007708AB0083122F088316B20083122E083F
:102590008316B10083122D088316B00083122C0815
:1025A0008316AF000A1283123E230A164D088400D8
:1025B00083134E1883177A08B7007908B600780895
:1025C000B5007708B40083102F088316AE0083127D
:1025D0002E088316AD0083122D088316AC008312DB
:1025E0002C088316AB00831237088316B2008312BF
:1025F00036088316B100831235088316B0008312A3
:1026000034088316AF000A1283123E230A167A0892
:10261000B3007908B2007808B1007708B000672CE1
:10262000DE010130DF000A123E200A162908CC0024
:102630000A128A1598250A168A118316AC017808A1
:10264000AB000A128312F1210A16CE010408CD0054
:102650004E10831B4E1483147A088316AE0079083B
:10266000AD007808AC007708AB0083122F08831602
:10267000B20083122E088316B10083122D08831630
:10268000B00083122C088316AF000A1283123E2377
:102690000A164D08840083134E1883177A08B70072
:1026A0007908B6007808B5007708B40083142F08BD
:1026B0008316AE0083122E088316AD0083122D08F8
:1026C0008316AC0083122C088316AB0083123708E4
:1026D0008316B200831236088316B10083123508C0
:1026E0008316B000831234088316AF000A128312D7
:1026F0003E230A167A08B3007908B2007808B100C0
:102700007708B000672CDE010130DF000A123E209E
:102710000A162908CC000A128A1598250A168A1169
:102720008316AC017808AB000A128312F1210A1655
:10273000CE010408CD004E10831B4E1483147A087A
:102740008316AE007908AD007808AC007708AB00BE
:1027500083122F088316B20083122E088316B1004D
:1027600083122D088316B00083122C088316AF0045
:102770000A1283123E230A164D08840083134E1852
:1027800083177A08B7007908B6007808B50077088B
:10279000B4002F088316AA0083122E088316A900FE
:1027A00083122D088316A80083122C088316A70015
:1027B000831237088316AE00831236088316AD00E5
:1027C000831235088316AC00831234088316AB00DD
:1027D0000A12831284240A167A08B3007908B20018
:1027E0007808B1007708B000672CDE010130DF0007
:1027F0000A123E200A162908CC000A128A159825CA
:102800000A168A118316AC017808AB000A128312EB
:10281000F1210A16CE010408CD004E10831B4E1480
:1028200083147A088316AE007908AD007808AC00EE
:102830007708AB0083122F088316B20083122E088C
:102840008316B10083122D088316B00083122C0862
:102850008316AF000A1283123E230A164D08840025
:1028600083134E1883177A08B7007908B6007808E2
:10287000B5007708B4002F088316AA0083122E082B
:102880008316A90083122D088316A80083122C0832
:102890008316A700831237088316AE00831236080A
:1028A0008316AD00831235088316AC0083123408FA
:1028B0008316AB000A12831251220A167A08B3005B
:1028C0007908B2007808B1007708B000672C0130B1
:1028D000DA00DB000A12A7200A16233003178D0046
:1028E00000308F000A12031314210A160130DA0097
:1028F0000230DB000A12A7200A1689308400330850
:10290000CF003208CE003108CD003008CC000230B4
:10291000D000422894292B086E3C031DAC2CDE010C
:102920000130DF000A123E200A16AA012A08133CD1
:10293000031CA12C38302A07840083138001AA0AC3
:10294000962CA901A701AF01AE01AD01AC01B70101
:10295000B601B501B4019429A90A942963000A10AB
:0E2960008A100A1582079D2A102B832BF52B57
:02400E00713F00
:00000001FF
;PIC16F877A
;CRC=F991  CREATED="29-May-11 22:07"
