:1000000000308A0019280000223084008313000881
:10001000031918280130F800F701F70B0D28F80B29
:100020000C284A30F700F70B13281628800B0A28F3
:100030000800840183131F30830583161F149F1447
:100040001F159F1107309C000F308500C0308800BD
:1000500008178312081F822883168801083083122C
:1000600088000430A100FA30A2000420A10B33283C
:10007000831688010C30831288000430A100FA3006
:10008000A2000420A10B3F288316880104308312AC
:100090008800A100FA30A2000420A10B4A28831690
:1000A00088010630831288000430A100FA30A200D3
:1000B0000420A10B56288316880102308312880081
:1000C0000430A100FA30A2000420A10B622883169C
:1000D00088010330831288000430A100FA30A200A6
:1000E0000420A10B6E28831688010130831288003A
:1000F0000430A100FA30A2000420A10B7A28831654
:0A01000028288312831628286300C4
:02400E00713F00
:00000001FF
;PIC16F877A
;CRC=BFBF  CREATED="19-Oct-11 10:37"
