:100000000D308A00242D0000FF00030E8301A100A3
:100010000A08A0008A010408A2007708A300780853
:10002000A4007908A5007A08A600831383128B1E0A
:100030001B280B192C28220884002308F700240809
:10004000F8002508F9002608FA0020088A00210E89
:100050008300FF0E7F0E09008A150A1200288E30D9
:10006000F70003175F08F8005E08F900FA01F808C6
:10007000031D44287908F800F9010830F702F80850
:10008000031D4428F7014C280310F81B4B28F90DD9
:10009000F80DF7034428F8130313080003175E084C
:1000A0000319BF28E60062080319BF28E6070318F2
:1000B00060287F30E602031CBF280319BF2864288C
:1000C0008130E6070318BF286608F700F801F90138
:1000D000FA015F08EA00EA176008E9006108E80031
:1000E0001830E600E701681C8D286508FA07031C34
:1000F0007F28F90A031D7F28F80A0319E717640807
:10010000F907031C8628F80A0319E7176308E000BB
:10011000E0176008F8070318E717E70DF80CF90C6B
:10012000FA0CEA0CE90CE80C0310E60B722801301B
:10013000F7070318BF28F81BA428EA0DFA0DF90DDC
:10014000F80DF7030319BF28EA1FB528FA0A031DA3
:10015000B528F90A031DB528F80A031DB528F80CBF
:10016000F90CFA0CF70A0319BF285F08E7006308C7
:10017000E706E71FBD28F817C328F813C328F701BF
:10018000F801F901FA010313080003175F08E600FC
:100190006308E606E61FD12803110310DF1B0314D2
:1001A00004295F08E6006208E7005E08E702031919
:1001B000DF28E61F04290308013A830004296308A5
:1001C000E7005F08E7020319EB28E61F042903088C
:1001D000013A830004296408E7006008E702031974
:1001E000F728E61F04290308013A8300042965085B
:1001F000E7006108E70203190329E61F0429030841
:10020000013A830004290310031308008030831C83
:100210000C290317E50603130317EA01EB01610834
:10022000E9006508E90660080319FA29E800F70003
:1002300064080319032AE80203199F29031C5D2996
:100240006508EE00EE176608ED006708EC00EB01AC
:100250000310EE0CED0CEC0CEB0CE80B2729E91F5E
:1002600034296A14172A6A1068106A1663308400E9
:1002700083172C2A6A12E91B4729681C5229EE0CA5
:10028000ED0CEC0CEB0CF70A0319122A5229EE1BA9
:1002900055290310EB0DEC0DED0DEE0DF7030319D1
:1002A000122A47296A17BF296A136108E900E91F62
:1002B0005B29EE170B2AEE130B2A6408E800F700FF
:1002C0006008E8026108EE00EE176208ED006308BE
:1002D000EC00EB010310EE0CED0CEC0CEB0CE80B5E
:1002E0006929E91F7629EA14172AEA106810EA1624
:1002F0006730840083172C2AEA12E91B8929681CBD
:100300009429EE0CED0CEC0CEB0CF70A0319122AF5
:100310009429EE1B97290310EB0DEC0DED0DEE0D5E
:10032000F7030319122A8929EA17BF29EA13650876
:10033000E900E91F9D29EE170B2AEE130B2A650829
:10034000EE00EE176608ED006708EC00E91FAC2927
:10035000EE136A15172A6A11EB01681063308400E6
:1003600083172C2AE91BD5296108E900681CBF29DD
:10037000EE0CED0CEC0CEB0CF70A0319122AEB1F38
:10038000D029EC0A031DD029ED0A031DD029EE0A5D
:10039000031DD029EE0CED0CEC0CF70A0319122A00
:1003A0006A1B5429EA1B9629F4298030EE06EE1FB9
:1003B000DD29172A6508E900EA296108E900EE0845
:1003C000031DEA29ED08031DEA29EC08031DEA29AB
:1003D000F7010B2AEE1BF4290310EB0DEC0DED0DCC
:1003E000EE0DF70BEA29122AE91FF829EE170B2A5E
:1003F000EE130B2A6408F7006508EE006608ED00AE
:100400006708EC000B2A6008F7006108EE0062083C
:10041000ED006308EC006E08F8006D08F9006C0848
:10042000FA004A2AF701F801F901FA014A2AEB0118
:10043000EC09ED09EE09EB09EB0A031D252AEC0A8C
:10044000031D252AED0A0319EE0A6A183329EA1852
:1004500075296A19AB29DA290008EC07031C362A2A
:10046000ED0A031D362AEE0A0319681484030008F6
:10047000ED07031C3E2AEE0A0319681484030008E2
:10048000801F803AEE07031868146A1A3A29EA1A9C
:100490007C29B22903130800031762080319122BE1
:1004A000EE0066080319122BEE02031C5C2A7F3053
:1004B000EE070318122B622A8130EE02031C122B66
:1004C0000319122B6E08F700F801F901FA01ED018A
:1004D0006308EC00EC176408EB006508EA001930CB
:1004E000EE006908EA020318852A0130EB020318BE
:1004F000852AEC020318852AED020318852AED0AE5
:10050000EC0AEB0A6908EA07B72A6808EB02031845
:10051000A02A0130EC020318A02AED020318A02A39
:10052000ED0AEC0A6808EB076908EA07031CB72A1A
:10053000EB0A031DB72AEC0A031DB72AED0AB72AF6
:1005400067088038EC020318B62A0130ED02031860
:10055000B62AED0A67088038EC076808EB07031C29
:10056000942AEC0A031D942AED0A942A7A14EE0BBD
:10057000BA2AC52A0310EA0DEB0DEC0DED0D0310A0
:10058000FA0DF90DF80DEF0D712A6F1CCD2A03102D
:10059000F80CF90CFA0CEF0CD02AF7030319122B04
:1005A000EF1BF92A0310EA0DEB0DEC0DED0D6908B8
:1005B000EA020318E52A0130EB020318E52AEC02EF
:1005C0000318E52AED02031C082B6808EB02031848
:1005D000F02A0130EC020318F02AED02031C082B6C
:1005E00067088038EC020318F92A0130ED02031C79
:1005F000082BFA0A031D082BF90A031D082BF80A19
:10060000031D082BF70A0319122BF80CF90CFA0C2E
:100610006308EE006708EE06EE1F102BF817162B86
:10062000F813162BF701F801F901FA01031308007A
:10063000D432F236EF36653AF2370000C434E7348C
:10064000F4306C00D4326D386539613A7539611D0A
:100650000001201020102010201020102010201049
:10066000201020005536F434ED30BA126600201008
:10067000201020102010201020102010201020000A
:10068000CD30F834ED30BA12660020102010201062
:10069000201020102010201020100001CD34EE3446
:1006A000ED30BA126600201020102010201020100B
:1006B00020102010201000015039EF366532E93744
:1006C000BA12660052308400831700080319762B93
:1006D0000130F800F701F70B6B2BF80B6A2B4A304F
:1006E000F700F70B712B742B800B682B0800831617
:1006F0000910891009110030860083120910831631
:10070000091089100911FF30860083128914000036
:100710000915000006080317D800031309110D304E
:10072000F700F70B912B0030831686008312031716
:100730005808F8007808D800D81FA02B03137F2B87
:100740005618A52B031309100317561CAA2B0313C5
:10075000091403170000031389100000091103177F
:1007600057080313860000000915B62B09110D3038
:10077000F700F70BB92B080083160910891009112F
:100780000030860083120911891009100F300317F9
:10079000D200031362230317C4014408023C031C64
:1007A000DE2BD6013830D70003137723053003172B
:1007B000D200031362230317C40ACD2BD6010C30D9
:1007C000D700031377230317D6010630D70003138E
:1007D00077230317D6010130D700031377230317BC
:1007E000D6010230D70003137723A8018A150A1215
:1007F0003D2D0317D40153080313A8000317D20893
:10080000031D052C0130D200052CD30803192D2C13
:10081000530B102C8030D40001305202D4072D2C01
:100820005308023C031D1A2C4030D4000130520200
:10083000D4072D2C5308033C031D242C1430D40062
:1008400001305202D4072D2C5308043C031D2D2CDB
:100850005430D40001305202D40754088038D500F7
:10086000D6015508D7000313772308000317510852
:100870000C3A03130319432C063A03194F2C023A7E
:1008800003196A2C712C0317D6010130D70003130A
:10089000772302300317D20003136223792CA80AAE
:1008A0002808003C031C582C2808043C031C622C1C
:1008B00001300317D200031328080317D3000313D2
:1008C000F923692CA80101300317D200D3000313C8
:1008D000F923792C0317D6011030D700031377239F
:1008E000792C01300317D6005108D7000313772362
:1008F000792C0800831603178C170C1400000000D5
:1009000083120C087F390319B22CC4000D08C500EE
:100910000F08C6004408D100031336240317450806
:100920008D0046088F0083168C170C140000000001
:1009300083120C0D0E0D7F390319B22CC4000D0863
:10094000C5000F08C6004408D1000313362403175E
:1009500045088D0046088F008D0A03198F0A03137E
:100960007A2C031703130800F701F801F901FA01C3
:100970000317D901DA01DB01DC01580857045604DA
:1009800055040319F32C2030DD000310D10DD20DD6
:10099000D30DD40DD90DDA0DDB0DDC0D58085C023A
:1009A000031DDC2C57085B02031DDC2C56085A0281
:1009B000031DDC2C55085902031CED2C5508D902E7
:1009C0005608031C560FDA025708031C570FDB02A8
:1009D0005808031C580FDC020314F70DF80DF90D2D
:1009E000FA0DDD0BC52C5930840083170313080062
:1009F00004080317C9004808CB000319222D03136C
:100A0000A7018B1BA7178B1303174708E1004608A4
:100A1000E0004508DF004408DE00E501E401203085
:100A2000E3008230E20003134E20A71B8B177A08E5
:100A30000317C7007908C6007808C5007708C40006
:100A4000CB0BFF2C4708D4004608D3004508D20042
:100A50004408D1005108B63CD100FA015208D50033
:100A6000D2170310D20CD30CD40CFA0CF90CF80CDE
:100A7000F70CD10B312DD51F482DF709F809F909CD
:100A8000FA09F70A0319F80A0319F90A0319FA0A05
:100A90007A08C7007908C6007808C5007708C4003E
:100AA000C71F5F2DC903C916C409C509C609C709EF
:100AB000C40A0319C50A0319C60A0319C70A3B3039
:100AC000D0009A30CF00CA30CE00CD010A30CB0022
:100AD00048080319C90A4708D4004608D300450846
:100AE000D2004408D1005008D8004F08D7004E0863
:100AF000D6004D08D5000313B42400080317C40022
:100B0000840A0008C500840A0008C600840A000898
:100B1000C700FD308407F708031DA12D480A4B02CA
:100B20000319A12D49080319A32D0F394B020319ED
:100B30009B2D0318DB2DC91BDB2D491BA32D20305A
:100B4000D52D2030C905C91EB32DC9124808031D73
:100B5000C9037708C9002D30D100031336240317C9
:100B60004908F700C90148084B02031DC32D770847
:100B7000C9002E30D1000313362403174908F700AB
:100B80002030C90500303030C91ED52DC9124808A3
:100B9000031DC9037708C9002D30D1000313362483
:100BA00003174908F700C9013030F7077708D1006B
:100BB0000313362403175008D4004F08D3004E08FF
:100BC000D2004D08D100D801D701D6010A30D50096
:100BD0000313B4247A080317D0007908CF007808EB
:100BE000CE007708CD00CB0B6B2D031308008316C6
:100BF00003178C170C140000000003181D2E83121D
:100C00000C087F39C5000D08C6000F08C70045084D
:100C1000D10003133624031746088D0047088F00C0
:100C200083168C170C14000000008312C40B192EBD
:100C30001B2E83161D2E372E831683120C0D0E0DC0
:100C40007F39C5000D08C6000F08C7004508D10050
:100C500003133624031746088D0047088F008D0ABA
:100C600003198F0AC40B352E372E0313F72D0313E8
:020C700008007A
:101000002B08283C031DA128AC08031DA12883162A
:1010100008121030831288061F151F190D281E088C
:10102000AA01A9002A080317DF00031329080317E0
:10103000DE008A1103132F208A157A080317E100B6
:101040007908E0007808DF007708DE002E30E50040
:101050009030E4002030E3007930E2008A1103137D
:101060004E208A157A08BB007908BA007808B900C2
:101070007708B8003B080317E10003133A08031789
:10108000E000031339080317DF00031338080317C0
:10109000DE00E501E4014830E3008530E2008A111A
:1010A00003134E208A157A08BF007908BE0078081D
:1010B000BD007708BC00B008031D7B282F080F3C3B
:1010C000031C7B282F0DF900300DFA00F90DFA0DE5
:1010D000FC30F9057908A03E840083137A18831741
:1010E0003C088000840A3D088000840A3E08800095
:1010F000840A3F088000B008031D82282F080F3C97
:1011000003189C28310DF900320DFA00F90DFA0D83
:10111000FC30F9057908103E840083173C088000F4
:10112000840A3D088000840A3E088000840A3F0843
:101130008000B10A0319B20AAF0A0319B00AAC0160
:10114000AB012D08B03C031D182D2E08043C031DD7
:10115000182D831623088312C700831622088312D2
:10116000C600831621088312C50083162008831247
:10117000C400B401B301B408031D1C2933080E3C9C
:10118000031C1C29330DF900340DFA00F90DFA0D7A
:10119000FC30F9057908A03E840083137A18831780
:1011A0000008F700840A0008F800840A0008F90023
:1011B000840A0008FA0047080317E10003134608F1
:1011C0000317E000031345080317DF000313440867
:1011D0000317DE007A08E5007908E4007808E300E8
:1011E0007708E2008A110313C5208A15031C182909
:1011F000330DF900340DFA00F90DFA0DFC30F90544
:101200007908A03E840083137A1883170008F7003A
:10121000840A0008F800840A0008F900840A00081B
:10122000FA00C7007908C6007808C5007708C4002E
:10123000B30A0319B40ABB28831623088312CB0010
:10124000831622088312CA00831621088312C9005C
:10125000831620088312C800B401B301B408031D2B
:10126000902933080E3C031C9029330DF900340DEE
:10127000FA00F90DFA0DFC30F9057908A03E84005A
:1012800083137A1883170008F700840A0008F8000F
:10129000840A0008F900840A0008FA000317E10034
:1012A0007908E0007808DF007708DE0003134B08B8
:1012B0000317E50003134A080317E4000313490862
:1012C0000317E300031348080317E2008A1103130E
:1012D000C5208A15031C8C29330DF900340DFA0042
:1012E000F90DFA0DFC30F9057908A03E840083134E
:1012F0007A1883170008F700840A0008F800840AA7
:101300000008F900840A0008FA00CB007908CA0036
:101310007808C9007708C800B30A0319B40A2E294F
:10132000CF01CE01CD01CC01B401B301B408031D3E
:10133000ED2933080E3C031CED29330DF900340D63
:10134000FA00F90DFA0DFC30F9057908A03E840089
:1013500083137A1883170008F700840A0008F8003E
:10136000840A0008F900840A0008FA000317DF0164
:101370000408DE005F10831B5F14831003134F0803
:101380000317E30003134E080317E20003134D088D
:101390000317E10003134C080317E0007A08E70085
:1013A0007908E6007808E5007708E4008A1103135D
:1013B00006218A1503175E08840083135F188317BC
:1013C0007A080313CF007908CE007808CD0077089B
:1013D000CC00B30A0319B40A96294F080317E50095
:1013E00003134E080317E40003134D080317E3002B
:1013F00003134C080317E200E901E8017030E7002D
:101400008230E6008A1103134C228A157A08CF0035
:101410007908CE007808CD007708CC0003171308B0
:101420000313D300031712080313D2000317110884
:101430000313D100031710080313D000B601B50140
:10144000B608031D7D2A35080C3C031C7D2A350D8A
:10145000F900360DFA00F90DFA0DFC30F90579089E
:10146000103E840083170008F700840A0008F80083
:10147000840A0008F900840A0008FA0053080317D8
:10148000E100031352080317E00003135108031788
:10149000DF00031350080317DE007A08E50079081F
:1014A000E4007808E3007708E2008A110313C520FE
:1014B0008A15031C792A350DF900360DFA00F90D4D
:1014C000FA0DFC30F9057908103E840083170008F6
:1014D000F700840A0008F800840A0008F900840A6A
:1014E0000008FA00C7007908C6007808C500770828
:1014F000C400B50A0319B60A202A031713080313F8
:10150000D700031712080313D6000317110803139B
:10151000D500031710080313D400B601B501B608AF
:10152000031DED2A35080C3C031CED2A350DF9008E
:10153000360DFA00F90DFA0DFC30F9057908103E68
:10154000840083170008F700840A0008F800840A62
:101550000008F900840A0008FA000317E10079087E
:10156000E0007808DF007708DE0003135708031750
:10157000E500031356080317E40003135508031787
:10158000E300031354080317E2008A110313C52074
:101590008A15031CE92A350DF900360DFA00F90DFC
:1015A000FA0DFC30F9057908103E84008317000815
:1015B000F700840A0008F800840A0008F900840A89
:1015C0000008FA00D7007908D6007808D500770817
:1015D000D400B50A0319B60A8F2ADB01DA01D90152
:1015E000D801B601B501B608031D4A2B35080C3CDD
:1015F000031C4A2B350DF900360DFA00F90DFA0DD2
:10160000FC30F9057908A03E840083137A1883170B
:101610000008F700840A0008F800840A0008F900AE
:10162000840A0008FA000317DF010408DE005F10D7
:10163000831B5F14831003135B080317E30003137A
:101640005A080317E200031359080317E1000313B4
:1016500058080317E0007A08E7007908E6007808E0
:10166000E5007708E4008A11031306218A150317A1
:101670005E08840083135F1883177A080313DB0066
:101680007908DA007808D9007708D800B50A031974
:10169000B60AF32A5B080317E50003135A08031779
:1016A000E400031359080317E30003135808031752
:1016B000E200E901E8015030E7008230E6008A11DB
:1016C00003134C228A157A08DB007908DA007808BF
:1016D000D9007708D80053080317E1000313520814
:1016E0000317E000031351080317DF00031350082A
:1016F0000317DE00031347080317E500031346082A
:101700000317E400031345080317E3000313440819
:101710000317E2008A110313C5208A15031C982BB6
:101720004708DF004608DE004508DD004408DC000D
:1017300047080317E100031346080317E0000313EB
:1017400045080317DF00031344080317DE000313E3
:1017500053080317E500031352080317E4000313AB
:1017600051080317E300031350080317E2008A111E
:101770000313C5208A15031CC52B5308DF0052082C
:10178000DE005108DD005008DC0047080317E100C7
:10179000031346080317E000031345080317DF008F
:1017A000031344080317DE00031353080317E5006F
:1017B000031352080317E400031351080317E3004F
:1017C000031350080317E2008A110313C5208A157A
:1017D000031DF22B5308DF005208DE005108DD0024
:1017E0005008DC0057080317E100031356080317DD
:1017F000E000031355080317DF0003135408031711
:10180000DE0003134B080317E50003134A08031710
:10181000E400031349080317E30003134808031700
:10182000E2008A110313C5208A15031C1F2C5708D8
:10183000E3005608E2005508E1005408E0004B08B8
:101840000317E10003134A080317E00003134908D4
:101850000317DF00031348080317DE0003135708BC
:101860000317E500031356080317E4000313550894
:101870000317E300031354080317E2008A1103134C
:10188000C5208A15031C4C2C4B08E3004A08E200D3
:101890004908E1004808E0004B080317E100031382
:1018A0004A080317E000031349080317DF00031376
:1018B00048080317DE00031357080317E500031356
:1018C00056080317E400031355080317E300031336
:1018D00054080317E2008A110313C5208A15031D5B
:1018E000792C4B08E3004A08E2004908E100480867
:1018F000E00083104F080317E30003134E0803179B
:10190000E20003134D080317E10003134C0803170B
:10191000E00003135B080317E70003135A080317DB
:10192000E600031359080317E500031358080317CB
:10193000E4008A11031306218A1577080317DE00D5
:101940007808DF007908E0007A08E100E500600827
:10195000E4005F08E3005E08E200E901E801E70156
:101960008030E6008A1103134C228A157A08E700BA
:101970007908E6007808E5007708E40003174708CF
:101980000313C300031746080313C20003174508D7
:101990000313C100031744080313C000AE01AD01D7
:1019A000B401B301B408031DF22C33080E3C031C30
:1019B000F22C330DF900340DFA00F90DFA0DFC305C
:1019C000F9057908A03E840083137A1883178001F3
:1019D000840A8001840A8001840A8001B30A031901
:1019E000B40AD22CB601B501B608031D122D350874
:1019F0000E3C031C122D350DF900360DFA00F90DC1
:101A0000FA0DFC30F9057908103E84008317800137
:101A1000840A8001840A8001840A8001B50A0319BE
:101A2000B60AF42CAE01AD01B001AF01B201B101B3
:101A3000AD0A0319AE0AAB0A0319AC0A3D308100A6
:101A40000B118A110A121B28840183131F3083058E
:101A5000AC01AB01AE01AD01B001AF01B201B1010A
:101A6000B70183161F149F141F159F1107309C0088
:101A70000F3088008A118312BC2B8A150317D601F8
:101A80000230D7008A11031377238A150430031715
:101A9000D2000130D3008A110313F9238A151830BC
:101AA00003178D0003308F008A1103137A248A15DF
:101AB00005300317D2000230D3008A110313F92333
:101AC0008A151E3003178D0003308F008A1103130F
:101AD0007A248A1504300317C400C830D2008A1152
:101AE000031362238A150317C40B6D2DD601013031
:101AF000D7008A11031377238A1501300317D20008
:101B0000D3008A110313F9238A15223003178D009D
:101B100003308F008A1103137A248A1583161F104D
:101B20009F101F159F111F1383121F139F178316DA
:101B30009F1383121F140030F8001F08C739780460
:101B40009F0083160108C0390738810083128B1665
:101B5000C0308B043D3081002E08043C031C372E1E
:101B6000031DB62D2D08AF3C031C372E1F151F1962
:101B7000B72D1E08AA01A900A7018B1BA7178B135D
:101B80002A080317DF00031329080317DE008A1150
:101B900003132F208A15A71B8B17A7018B1BA717D1
:101BA0008B137A080317E1007908E0007808DF005A
:101BB0007708DE002E30E5009030E4002030E300AE
:101BC0007930E2008A1103134E208A15A71B8B1768
:101BD0007A08BB007908BA007808B9007708B8001D
:101BE000A7018B1BA7178B133B080317E1000313F7
:101BF0003A080317E000031339080317DF00031343
:101C000038080317DE00E501E4014830E3008530C1
:101C1000E2008A1103134E208A15A71B8B177A083E
:101C2000EB007908EA007808E9007708E8000D3051
:101C30000317D2000130D3008A110313F9238A1548
:101C4000893084006B080317C70003136A08031761
:101C5000C600031369080317C500031368080317B8
:101C6000C4000230C8008A110313F8248A158316B1
:101C700008148312081C512E0A300317D2008A114F
:101C8000031362238A15831608148312081C502E2E
:101C90000A300317D2008A11031362238A15432ED8
:101CA000B70A3708013A03195F2E023A03199F2E2B
:101CB000063A0319DF2E023A03191F2F5F2F013056
:101CC0000317D2000230D3008A110313F9238A15B7
:101CD000293003178D0003308F008A1103137A24F3
:101CE0008A1501300317D2000230D3008A11031382
:101CF000F9238A15323003178D0003308F0003104B
:101D00000730C4008A110313F7258A15893084002F
:101D100043080317C700031342080317C600031341
:101D200041080317C500031340080317C40002301D
:101D3000C8008A110313F8248A15B70A5F2F0130EF
:101D40000317D2000230D3008A110313F9238A1536
:101D5000373003178D0003308F008A1103137A2464
:101D60008A1501300317D2000230D3008A11031301
:101D7000F9238A15403003178D0003308F000310BC
:101D80000730C4008A110313F7258A1589308400AF
:101D90005F080317C70003135E080317C600031389
:101DA0005D080317C50003135C080317C400023065
:101DB000C8008A110313F8248A15B70A5F2F01306F
:101DC0000317D2000230D3008A110313F9238A15B6
:101DD000453003178D0003308F008A1103137A24D6
:101DE0008A1501300317D2000230D3008A11031381
:101DF000F9238A154E3003178D0003308F0003102E
:101E00000730C4008A110313F7258A15893084002E
:101E100063080317C700031362080317C600031300
:101E200061080317C500031360080317C4000230DC
:101E3000C8008A110313F8248A15B70A5F2F0130EE
:101E40000317D2000230D3008A110313F9238A1535
:101E5000533003178D0003308F008A1103137A2447
:101E60008A1501300317D2000230D3008A11031300
:101E7000F9238A155C3003178D0003308F0003109F
:101E80000930C4008A110313F7258A1589308400AC
:101E900067080317C700031366080317C600031378
:101EA00065080317C500031364080317C400023054
:101EB000C8008A110313F8248A15B7015F2FAC2DCF
:021EC0006300BD
:02400E00713F00
:00000001FF
;PIC16F877A
;CRC=3AE3  CREATED="09-Nov-11 11:22"
