:1000000013308A00C82B00000A108A100A118207D8
:100010003134323433342F34343435343634783464
:100020003734383439342D346E3430343D342B3455
:10003000D724CC294F2720252E00C320CC2155269C
:1000400041224F294100D232F33A6C3A61326F10AB
:100050003D005A3084008313000803193D28013005
:10006000F800F701F70B3228F80B31284A30F70077
:10007000F70B38283B28800B2F280800F830831610
:1000800085000030860083120510F8308316850045
:10009000FF30860083128514000005150000060855
:1000A000E00005110D30F700F70B542800308316DF
:1000B000860083126008F8007808E000E01B4528FD
:1000C0005E1C05105E180514000085100000051167
:1000D0005F088600000005156D2805110D30F7003A
:1000E000F70B70280800F830831685000030860072
:1000F00083120511851005100F30DA002920CC017C
:100100004C08023C031C8D28DE013830DF003E2005
:100110000530DA002920CC0A8028DE010C30DF000F
:100120003E20DE010630DF003E20DE010130DF0030
:100130003E20DE010230DF003E20A0018A110A16B7
:10014000DA2B8A110A16DD2BDC015B08A000DA0825
:10015000031DAD280130DA00AD28DB080319D528CE
:100160005B0BB8288030DC0001305A02DC07D52850
:100170005B08023C031DC2284030DC0001305A02FB
:10018000DC07D5285B08033C031DCC281430DC00B9
:1001900001305A02DC07D5285B08043C031DD52832
:1001A0005430DC0001305A02DC075C088038DD0086
:1001B000DE015D08DF003E20080059080C3A0319F3
:1001C000E828063A0319F028023A031905290A29F2
:1001D000DE010130DF003E200230DA002920102944
:1001E000A00A2008003C031CF9282008043C031C3A
:1001F000FF280130DA002008DB00A4200429A00138
:100200000130DA00DB00A4201029DE011030DF000D
:100210003E2010290130DE005908DF003E20102961
:100220000800831603178C170C14000000008312BB
:100230000C087F39031955290313CC0003170D0847
:100240000313CD0003170F080313CE004C08D90089
:10025000DD204D0803178D0003134E0803178F0090
:1002600083168C170C140000000083120C0D0E0D69
:100270007F39031955290313CC0003170D08031305
:10028000CD0003170F080313CE004C08D900DD2062
:100290004D0803178D0003134E0803178F008D0AB6
:1002A00003198F0A03131129031703130800831678
:1002B00081138312CC01A10A0319BD292408FC3E35
:1002C00003188029043EC629F030831686000E30BC
:1002D000831286008029F030831686000D30831249
:1002E00086008029F030831686000B30831286004A
:1002F0008029F0308316860007308312860080291B
:10030000221C8C290608F039F03C031D8B29221091
:100310002308CC00A301BC290608F039F03C0319DE
:10032000B72906081039031D9729CD01AB29060806
:100330002039031D9E290130CD00AB290608403924
:10034000031DA5290230CD00AB2906088039031D05
:10035000AB290330CD004D0DF700F70DFC30F7054C
:10036000770824070420F800A3002214BC29A40A5B
:100370002408043C0319A401A1012308CC00F03097
:100380008316860083124C08F80008000A148A10AD
:100390000A11820764296B2972297929A501A50808
:1003A000031DD92957217808A5000230DA00292039
:1003B000CF290230DA0029202508A60025082602C8
:1003C000031DE92957217808A6000230DA00292008
:1003D000DE292508F8008A110A16212C8E30F70034
:1003E00083163D08F8003C08F900FA01F808031DDF
:1003F000032A7908F800F9010830F702F808031D0C
:10040000032AF7010B2A0310F81B0A2AF90DF80D2D
:10041000F703032AF8138312080083163908C00073
:100420003D08C006C01F192A03110310B91B03148D
:100430004C2A3908C0003C08C1003808C102031921
:10044000272AC01F4C2A0308013A83004C2A3D0882
:10045000C1003908C1020319332AC01F4C2A0308FE
:10046000013A83004C2A3E08C1003A08C102031930
:100470003F2AC01F4C2A0308013A83004C2A3F0838
:10048000C1003B08C10203194B2AC01F4C2A0308B4
:10049000013A83004C2A031083120800831638089F
:1004A0000319142BC4003C080319142BC402031CA9
:1004B0005E2A7F30C4070318142B642A8130C402DB
:1004C000031C142B0319142B4408F700F801F9013D
:1004D000FA01C3013908C200C2173A08C1003B083B
:1004E000C0001930C4003F08C0020318872A013039
:1004F000C1020318872AC2020318872AC3020318FD
:10050000872AC30AC20AC10A3F08C007B92A3E089F
:10051000C1020318A22A0130C2020318A22AC30290
:100520000318A22AC30AC20A3E08C1073F08C0072F
:10053000031CB92AC10A031DB92AC20A031DB92A1C
:10054000C30AB92A3D088038C2020318B82A01300C
:10055000C3020318B82AC30A3D088038C2073E0800
:10056000C107031C962AC20A031D962AC30A962AAB
:100570007A14C40BBC2AC72A0310C00DC10DC20DCA
:10058000C30D0310FA0DF90DF80DC50D732A451CA6
:10059000CF2A0310F80CF90CFA0CC50CD22AF70379
:1005A0000319142BC51BFB2A0310C00DC10DC20D6E
:1005B000C30D3F08C0020318E72A0130C102031827
:1005C000E72AC2020318E72AC302031C0A2B3E08CB
:1005D000C1020318F22A0130C2020318F22AC30230
:1005E000031C0A2B3D088038C2020318FB2A013085
:1005F000C302031C0A2BFA0A031D0A2BF90A031D66
:100600000A2BF80A031D0A2BF70A0319142BF80CFE
:10061000F90CFA0C3908C4003D08C406C41F122B9B
:10062000F817182BF813182BF701F801F901FA0144
:10063000831208008E30F70083163808F702390855
:10064000F9003A08F800F917F7080319322B0310DC
:10065000F908031D2E2BF8080319322BF90CF80C9E
:10066000F70B272BB91F392BF809F909F80A0319D9
:10067000F90A831208008030831C412B8316C106BF
:1006800083128316C601C7013D08C5004108C5068F
:100690003C0803192F2CC400F70040080319382C1C
:1006A000C4020319D42B031C922B4108CA00CA1799
:1006B0004208C9004308C800C7010310CA0CC90C8E
:1006C000C80CC70CC40B5C2BC51F692B46144C2CE3
:1006D000461044104616BF3084008313612C461226
:1006E000C51B7C2B441C872BCA0CC90CC80CC70C1F
:1006F000F70A0319472C872BCA1B8A2B0310C70D37
:10070000C80DC90DCA0DF7030319472C7C2B4617DA
:10071000F42B46133D08C500C51F902BCA17402C6B
:10072000CA13402C4008C400F7003C08C4023D082E
:10073000CA00CA173E08C9003F08C800C701031015
:10074000CA0CC90CC80CC70CC40B9E2BC51FAB2B05
:10075000C6144C2CC6104410C616C3308400831334
:10076000612CC612C51BBE2B441CC92BCA0CC90C5C
:10077000C80CC70CF70A0319472CC92BCA1BCC2B72
:100780000310C70DC80DC90DCA0DF7030319472C77
:10079000BE2BC617F42BC6134108C500C51FD22BAC
:1007A000CA17402CCA13402C4108CA00CA17420875
:1007B000C9004308C800C51FE12BCA1346154C2CBD
:1007C0004611C7014410BF3084008313612CC51B40
:1007D0000A2C3D08C500441CF42BCA0CC90CC80CDB
:1007E000C70CF70A0319472CC71F052CC80A031D9D
:1007F000052CC90A031D052CCA0A031D052CCA0CA9
:10080000C90CC80CF70A0319472C461B892BC61BB9
:10081000CB2B292C8030CA06CA1F122C4C2C410825
:10082000C5001F2C3D08C500CA08031D1F2CC908A0
:10083000031D1F2CC808031D1F2CF701402CCA1BC9
:10084000292C0310C70DC80DC90DCA0DF70B1F2C9D
:10085000472CC51F2D2CCA17402CCA13402C40080A
:10086000F7004108CA004208C9004308C800402CEC
:100870003C08F7003D08CA003E08C9003F08C80010
:100880004A08F8004908F9004808FA007F2CF701E7
:10089000F801F901FA017F2CC701C809C909CA0981
:1008A000C709C70A031D5A2CC80A031D5A2CC90AB6
:1008B0000319CA0A4618682BC618AA2B4619E02B3A
:1008C0000F2C0008C807031C6B2CC90A031D6B2CD6
:1008D000CA0A0319441484030008C907031C732CB3
:1008E000CA0A0319441484030008801F803ACA0707
:1008F00003184414461A6F2BC61AB12BE72B831228
:10090000080083163C080319F22CC40040080319A0
:10091000F22CC4070318932C7F30C402031CF22C62
:100920000319F22C972C8130C4070318F22C4408C9
:10093000F700F801F901FA013D08C800C8173E08A0
:10094000C7003F08C6001830C400C501461CC02CB3
:100950004308FA07031CB22CF90A031DB22CF80A4B
:100960000319C5174208F907031CB92CF80A031923
:10097000C5174108BE00BE173E08F8070318C51783
:10098000C50DF80CF90CFA0CC80CC70CC60C0310FA
:10099000C40BA52C0130F7070318F22CF81BD72C39
:1009A000C80DFA0DF90DF80DF7030319F22CC81F45
:1009B000E82CFA0A031DE82CF90A031DE82CF80AB2
:1009C000031DE82CF80CF90CFA0CF70A0319F22CA9
:1009D0003D08C5004108C506C51FF02CF817F62CC8
:1009E000F813F62CF701F801F901FA018312080057
:1009F000831626107508FE007408FD007308FC00BD
:100A00007208FB007508BB007408BA007308B900CF
:100A10007208B800BF01BE01BD01BC0183120D22E6
:100A2000031C182D831626147C08803AFC008312C0
:100A30007E088316BB007D08BA007C08B9007B08DD
:100A4000B800BF01BE01BD018E30BC0083120D2273
:100A500003182C2D031D492D7E088316BB007D082D
:100A6000BA007C08B9007B08B80083121A23790801
:100A70008316BD007808BC008312EE217A08831625
:100A8000A3007908A2007808A1007708A000212E11
:100A900083127E088316BB007D08BA007C08B9006B
:100AA0007B08B8008030BF009630BE001830BD0013
:100AB0009630BC0083120D22031C182E7E0883166C
:100AC000BB007D08BA007C08B9007B08B800BF01F4
:100AD000BE01BD018E30BC0083124E227A088316FF
:100AE000BB007908BA007808B9007708B80083120B
:100AF0001A2379088316A5007808A4007E08BB0095
:100B00007D08BA007C08B9007B08B800BF01BE01AF
:100B1000BD018E30BC0083124E2277088316A700D9
:100B20007808A8007908A9007A08AA002508BD005D
:100B30002408BC008312EE21831483162A08BF0008
:100B40002908BE002808BD002708BC007A08C30099
:100B50007908C2007808C1007708C00083123B23DF
:100B60008316BF01BE01BD018E30BC007A08C300F0
:100B70007908C2007808C1007708C0008312812478
:100B80007A08FE007908FD007808FC007708FB0071
:100B900083162508BD002408BC008312EE218316AD
:100BA000BF01BE01BD018E30BC007A08C3007908C8
:100BB000C2007808C1007708C000831281247A0837
:100BC0008316A3007908A2007808A1007708A00086
:100BD0007E08BB007D08BA007C08B9007B08B8001D
:100BE00083121A2379088316BD007808BC0083128B
:100BF000EE21831083162308BF002208BE002108BF
:100C0000BD002008BC007A08C3007908C20078083B
:100C1000C1007708C00083123B237A088316A30023
:100C20007908A2007808A1007708A000212E83127D
:100C30007E088316A3007D08A2007C08A1007B0823
:100C4000A0007E08BB007D08BA007C08B9007B08C4
:100C5000B80083121A2379088316BD007808BC00F7
:100C60008312EE2183147E088316BF007D08BE0028
:100C70007C08BD007B08BC007A08C3007908C2006C
:100C80007808C1007708C00083123B237A08FE0071
:100C90007908FD007808FC007708FB008316261C05
:100CA000542E2108803AA1007E08BB007D08BA00BE
:100CB0007C08B9007B08B800BF01BE01BD01BC01C2
:100CC00083120D220319A12E8316261C832EF608EB
:100CD000031D832E83142308BF002208BE002108B1
:100CE000BD002008BC00C301C201C1017F30C000AB
:100CF00083123B237A088316A3007908A2007808A0
:100D0000A1007708A0002618A02E760BA02E831035
:100D10002308BF002208BE002108BD002008BC0037
:100D2000C301C201C1017F30C00083123B237A0896
:100D30008316A3007908A2007808A1007708A00014
:100D4000831275088316BB007408BA007308B900D3
:100D50007208B800BF01BE01BD01BC0183120D22A3
:100D6000031DB82E8316A301A201A101A0018312C5
:100D700083162008F7002108F8002208F90023084C
:100D8000FA008312080065088316BB00831264080A
:100D90008316BA00831263088316B90083126208AF
:100DA0008316B800BF01BE01BD01BC0183120D2234
:100DB0000319D72F61088316BB00831260088316BE
:100DC000BA0083125F088316B90083125E08831687
:100DD000B800831265088316BF0083126408831667
:100DE000BE00831263088316BD0083126208831657
:100DF000BC0083124E227708EA007808EB007908DD
:100E0000EC007A08ED006D088316BB0083126C08B5
:100E10008316BA0083126B088316B90083126A081E
:100E20008316B800BF01BE01BD01BC0183120D22B3
:100E3000031C572F61088316BB00831260088316BA
:100E4000BA0083125F088316B90083125E08831606
:100E5000B800831265088316BF00831264088316E6
:100E6000BE00831263088316BD00831262088316D6
:100E7000BC0083124E227708EA007808EB0079085C
:100E8000EC007A08ED006D08F1006C08F0006B08CA
:100E9000EF006A08EE007108F5007008F4006F08B2
:100EA000F3006E08F2000130F600F824922F61087A
:100EB0008316BB00831260088316BA0083125F0892
:100EC0008316B90083125E088316B8008312650882
:100ED0008316BF00831264088316BE008312630862
:100EE0008316BD00831262088316BC0083124E2253
:100EF0007708EA007808EB007908EC007A08ED0042
:100F00006D08F1006C08F0006B08EF006A08EE0055
:100F10007108F5007008F4006F08F3006E08F20025
:100F2000F601F8247A08E9007908E8007808E70073
:100F30007708E60069088316BF00831268088316E5
:100F4000BE00831267088316BD00831266088316ED
:100F5000BC00831265088316C300831264088316DD
:100F6000C200831263088316C100831262088316CD
:100F7000C00083128124831461088316BF0083128A
:100F800060088316BE0083125F088316BD008312BB
:100F90005E088316BC007A08C3007908C20078088E
:100FA000C1007708C00083123B23D72FD72F08003A
:100FB0008E30F70083162108F8002008F900FA01A6
:100FC000A11FE72FF809F909F90A0319F80AF80827
:100FD000031DF42F7908F800F9010830F702F8082A
:100FE000031DF42FF701FD2F0310F81BFB2FF90D44
:0E0FF000F80DF703F42FA11FF8138312080069
:101000006508E9006408E8006308E7006208E60094
:1010100069088316BB00831268088316BA0083121E
:1010200067088316B900831266088316B800BF01EB
:10103000BE01BD017F30BC008A1183120D228A15CA
:101040000319DD2AFC016630FB007B088400831352
:101050007C1883177E308000831469088316BF00D4
:10106000831268088316BE00831267088316BD00CA
:10107000831266088316BC00C301C201C1017F3020
:10108000C0008A1183123B238A157708FB00780879
:10109000FC007908FD007A08FE00831069088316B9
:1010A000BF00831268088316BE0083126708831688
:1010B000BD00831266088316BC00C301C201C101D2
:1010C0007F30C0008A1183123B238A157E08831665
:1010D000BB007D08BA007C08B9007B08B8007A081C
:1010E000BF007908BE007808BD007708BC008A11EF
:1010F00083124E228A157A08E9007908E8007808F8
:10110000E7007708E60069088316BF0083126808C5
:101110008316BE00831267088316BD00831266081B
:101120008316BC00831269088316C3008312680803
:101130008316C200831267088316C10083126608F3
:101140008316C0008A11831281248A157A08F5005B
:101150007908F4007808F3007708F200BC308316B1
:10116000BF002430BE006730BD007D30BC00750874
:10117000C3007408C2007308C1007208C0008A115D
:10118000831281248A157708FB007808FC0079080F
:10119000FD007A08FE0083107E088316BF007D08DC
:1011A000BE007C08BD007B08BC00E330C300E43017
:1011B000C2009030C1008230C0008A1183123B23EC
:1011C0008A157A08ED007908EC007808EB007708BA
:1011D000EA006D088316BF0083126C088316BE00F8
:1011E00083126B088316BD0083126A088316BC0045
:1011F0007508C3007408C2007308C1007208C000FB
:101200008A11831281248A157708FB007808FC0074
:101210007908FD007A08FE0083107E088316BF005F
:101220007D08BE007C08BD007B08BC001C30C300EC
:101230008730C2005730C1008330C0008A1183124A
:101240003B238A157A08ED007908EC007808EB005A
:101250007708EA006D088316BF0083126C088316B6
:10126000BE0083126B088316BD0083126A088316C2
:10127000BC007508C3007408C2007308C10072087E
:10128000C0008A11831281248A157708FB00780830
:10129000FC007908FD007A08FE0083107E088316A2
:1012A000BF007D08BE007C08BD007B08BC00AB30E1
:1012B000C300E130C2009E30C1008330C0008A11FB
:1012C00083123B238A157A08ED007908EC00780830
:1012D000EB007708EA008316BF01BE01BD017F3035
:1012E000BC007508C3007408C2007308C10072080E
:1012F000C0008A11831281248A157708FB007808C0
:10130000FC007908FD007A08FE0083107E08831631
:10131000BF007D08BE007C08BD007B08BC00B43067
:10132000C3002A30C2008230C100C0008A1183127B
:101330003B238A157A08F1007908F0007808EF005D
:101340007708EE0071088316BF007008BE00831294
:101350006F088316BD0083126E088316BC007508E3
:10136000C3007408C2007308C1007208C0008A116B
:10137000831281248A157708FB007808FC0079081D
:10138000FD007A08FE0083107E088316BF007D08EA
:10139000BE007C08BD007B08BC008030C3003E302E
:1013A000C2000630C1008330C0008A1183123B2383
:1013B0008A157A08F1007908F0007808EF007708BC
:1013C000EE0071088316BF007008BE0083126F081C
:1013D0008316BD0083126E088316BC007508C30017
:1013E0007408C2007308C1007208C0008A11831219
:1013F00081248A157708FB007808FC007908FD0035
:101400007A08FE0083107E088316BF007D08BE00A8
:101410007C08BD007B08BC00AB30C300E130C200DB
:101420009E30C1008230C0008A1183123B238A158E
:101430007A08F1007908F0007808EF007708EE00EC
:1014400069088316BF00831268088316BE008312E2
:1014500067088316BD00831266088316BC008312DA
:101460006D088316C30083126C088316C2008312B2
:101470006B088316C10083126A088316C0008A11A4
:10148000831281248A157708FB007808FC0079080C
:10149000FD007A08FE008316BB007D08BA007C08B8
:1014A000B9007B08B8007108BF007008BE00831245
:1014B0006F088316BD0083126E088316BC008A1164
:1014C00083124E228A157A08ED007908EC0078081C
:1014D000EB007708EA00FC016230FB007B08840027
:1014E00083137C1883177E300002F600F61F8D2AC6
:1014F0007608003C8316A101A000A01BA1038A115D
:101500008312D8278A157708EE007808803AEF0012
:101510007908F0007A08F1009F2A8316A101760865
:10152000A000A01BA1038A118312D8278A157A086C
:10153000F1007908F0007808EF007708EE007108F4
:101540008316BF007008BE0083126F088316BD00AB
:1015500083126E088316BC001830C3007230C200BC
:101560003130C1007E30C0008A11831281248A1577
:1015700083106D088316BF0083126C088316BE00AB
:1015800083126B088316BD0083126A088316BC00A1
:101590007A08C3007908C2007808C1007708C00043
:1015A0008A1183123B238A157A08ED007908EC0032
:1015B0007808EB007708EA00E12AED01EC01EB0185
:1015C000EA016A08F7006B08F8006C08F9006D087A
:1015D000FA00080065088316BB00831264088316AE
:1015E000BA00831263088316B90083126208831657
:1015F000B8001830BF007230BE003130BD007E3000
:10160000BC008A1183124E228A157A088316BB0009
:101610007908BA007808B9007708B8008A118312EF
:101620001A238A157808F20073106508E900640827
:10163000E8006308E7006208E60065088316BB005F
:10164000831264088316BA00831263088316B900F4
:10165000831262088316B800BF01BE01BD01BC0140
:101660008A1183120D228A15031C3C2B7314F20974
:10167000F20A6708803AE700ED01EC01EB01EA01AC
:10168000FC016A30FB007B08840083137C188317FD
:101690007F307207800069088316BB0083126808D8
:1016A0008316BA00831267088316B900831266088E
:1016B0008316B8001830BF007230BE003130BD0054
:1016C0007E30BC008A1183124E228A157708FB00F7
:1016D0007808FC007908FD007A08FE008316A10155
:1016E0007208A000A01BA1038A118312D8278A15B3
:1016F00083147E088316BF007D08BE007C08BD00F1
:101700007B08BC007A08C3007908C2007808C100D1
:101710007708C0008A1183123B238A157A08E900F2
:101720007908E8007808E7007708E6007C3083163F
:10173000BF008830BE005930BD007230BC0083123B
:1017400069088316C300831268088316C2008312D7
:1017500067088316C100831266088316C0008A11C9
:10176000831281248A157708FB007808FC00790829
:10177000FD007A08FE0083107A088316BF007908FE
:10178000BE007808BD007708BC00E030C300973089
:10179000C2002630C1007530C0008A1183123B237D
:1017A0008A157A08F1007908F0007808EF007708C8
:1017B000EE0071088316BF007008BE0083126F0828
:1017C0008316BD0083126E088316BC00831269085D
:1017D0008316C300831268088316C2008312670849
:1017E0008316C100831266088316C0008A11831213
:1017F00081248A157708FB007808FC007908FD0031
:101800007A08FE0083107A088316BF007908BE00AC
:101810007808BD007708BC00C430C3001D30C2008A
:101820001E30C1007830C0008A1183123B238A1514
:101830007A08F1007908F0007808EF007708EE00E8
:1018400071088316BF007008BE0083126F088316EC
:10185000BD0083126E088316BC00831269088316CC
:10186000C300831268088316C200831267088316B8
:10187000C100831266088316C0008A118312812476
:101880008A157708FB007808FC007908FD007A08C3
:10189000FE0083107A088316BF007908BE0078081E
:1018A000BD007708BC005E30C3005030C20063301A
:1018B000C1007A30C0008A1183123B238A157A084E
:1018C000F1007908F0007808EF007708EE00710861
:1018D0008316BF007008BE0083126F088316BD0018
:1018E00083126E088316BC00831269088316C30036
:1018F000831268088316C200831267088316C1002A
:10190000831266088316C0008A11831281248A1507
:101910007708FB007808FC007908FD007A08FE00D3
:1019200083107A088316BF007908BE007808BD00CE
:101930007708BC001A30C300FE30C2007530C10009
:101940007C30C0008A1183123B238A157A08F1008B
:101950007908F0007808EF007708EE007108831628
:10196000BF007008BE0083126F088316BD0083128B
:101970006E088316BC00831269088316C3008312A5
:1019800068088316C200831267088316C100831299
:1019900066088316C0008A11831281248A1577088D
:1019A000FB007808FC007908FD007A08FE0083102F
:1019B0007A088316BF007908BE007808BD00770852
:1019C000BC001830C3007230C2003130C1007E301C
:1019D000C0008A1183123B238A157A08F100790826
:1019E000F0007808EF007708EE0069088316BF0062
:1019F000831268088316BE00831267088316BD0031
:101A0000831266088316BC007108C3007008C20008
:101A100083126F088316C10083126E088316C000FC
:101A20008A11831281248A1583108316BF01BE0197
:101A3000BD017F30BC007A08C3007908C200780875
:101A4000C1007708C0008A1183123B238A156D08F4
:101A50008316BF0083126C088316BE0083126B08C6
:101A60008316BD0083126A088316BC007A08C3007F
:101A70007908C2007808C1007708C0008A11831273
:101A800081248A157A08ED007908EC007808EB00CB
:101A90007708EA00731C6E2D8316BB01BA01B901E9
:101AA0007F30B80083126D088316BF0083126C0864
:101AB0008316BE0083126B088316BD0083126A086A
:101AC0008316BC008A1183124E228A157A08ED0013
:101AD0007908EC007808EB007708EA006A08F7005C
:101AE0006B08F8006C08F9006D08FA000800013076
:101AF0004C02D100A8014C0828020318C42F38302A
:101B00002807840083130008CD008316BD018312CB
:101B100051088316BC008A118312EE218A157708BA
:101B2000D2007808D3007908D4007A08D500D9010A
:101B3000D8012030D7008230D6005508DD00540887
:101B4000DC005308DB005208DA0059088316BB009A
:101B5000831258088316BA00831257088316B900F7
:101B6000831256088316B800BF01BE01BD01BC0137
:101B70008A1183120D228A15031CBA2E5D08E1001A
:101B80005C08E0005B08DF005A08DE00E501E401C4
:101B9000E3017F30E2008A11C3268A157708DE0050
:101BA0007808DF007908E0007A08E1008316BB00BE
:101BB000831260088316BA0083125F088316B90087
:101BC00083125E088316B800BF01BE01BD01BC01CF
:101BD0008A1183120D228A15031DBA2E5D08E100B9
:101BE0005C08E0005B08DF005A08DE00E501E40164
:101BF000E3018030E2008A11C3268A157708DE00EF
:101C00007808DF007908E0007A08E1008316BB005D
:101C1000831260088316BA0083125F088316B90026
:101C200083125E088316B800BF01BE01BD01BC016E
:101C30008A1183120D228A15031D6B2E5608DE00B1
:101C40005708803ADF005808E0005908E100E50035
:101C50006008E4005F08E3005E08E2000020770807
:101C6000DE007808DF007908E0007A08E1008316DA
:101C7000BF00831260088316BE0083125F088316BC
:101C8000BD0083125E088316BC0083125D088316B4
:101C9000C30083125C088316C20083125B0883169C
:101CA000C10083125A088316C0008A11831281244E
:101CB0008A157708DE007808DF007908E0007A08E6
:101CC000E100E5006008E4005F08E3005E08E20070
:101CD000EA22812FB92E5608DE005708803ADF002D
:101CE0005808E0005908E100E5006008E4005F08DA
:101CF000E3005E08E20000207708DE007808DF00DD
:101D00007908E0007A08E1008316BF0083126008BA
:101D10008316BE0083125F088316BD0083125E081F
:101D20008316BC0083125D088316C30083125C080F
:101D30008316C20083125B088316C10083125A08FF
:101D40008316C0008A11831281248A157708DE0069
:101D50007808DF007908E0007A08E100E500600813
:101D6000E4005F08E3005E08E200EA228030F80643
:101D7000812F812F59088316BB00831258088316C0
:101D8000BA00831257088316B900831256088316C7
:101D9000B800BF01BE01BD01BC018A1183120D2232
:101DA0008A15031C092F5D08E1005C08E0005B0850
:101DB000DF005A08DE00E501E401E3017F30E200C4
:101DC0008A11C3268A157708DE007808DF007908B3
:101DD000E0007A08E1008316BB00831260088316D6
:101DE000BA0083125F088316B90083125E08831657
:101DF000B800BF01BE01BD01BC018A1183120D22D2
:101E00008A150319092FF701F801F901FA01812F49
:101E1000812F59088316BB00831258088316BA0015
:101E2000831257088316B900831256088316B80028
:101E3000BF01BE01BD01BC018A1183120D228A15AA
:101E4000031D3D2F5D088316BB0083125C088316BB
:101E5000BA0083125B088316B90083125A088316EE
:101E6000B800BF01BE01BD01BC018A1183120D2261
:101E70008A1503183D2F031D812F5908E5005808C6
:101E8000E4005708E3005608E20000207708DE006F
:101E90007808DF007908E0007A08E1008316BF00C7
:101EA000831260088316BE0083125F088316BD008C
:101EB00083125E088316BC0083125D088316C3007C
:101EC00083125C088316C20083125B088316C1006C
:101ED00083125A088316C0008A11831281248A153E
:101EE0007708DE007808DF007908E0007A08E10072
:101EF000E5006008E4005F08E3005E08E200EA2213
:101F0000812F7708D2007808D3007908D4007A08A6
:101F1000D5008316BD0183124D088316BC008A11BB
:101F20008312EE218A157A088316BF007908BE0055
:101F30007808BD007708BC00831255088316C300DB
:101F4000831254088316C200831253088316C100FB
:101F5000831252088316C0008A11831281248A15C5
:101F60007A088316BB007908BA007808B9007708A8
:101F7000B8008A1183121A238A157808CE004E08F9
:101F8000CF07D103A80A7B2D4F08633C0318CC2F41
:101F900001304F07D000CE2F4F08D0005008F80076
:021FA000080037
:1020000083144F088316BF0083124E088316BE0048
:1020100083124D088316BD0083124C088316BC0042
:10202000DB30C3000F30C2004930C1007F30C00038
:102030000A1283123B230A167708D0007808D100D1
:102040007908D2007A08D3005308D7005208D60086
:102050005108D5005008D400E301E201E1017F30CE
:10206000E0007E308316A0008030A100A201A30111
:102070007A30A4002A30A500AA30A600AB30A70011
:102080007530A800B630A9000B30AA006130AB0053
:102090006F30AC005030AD000D30AE000130AF00FD
:1020A0006930B0009330B100F230B2007E30B3003E
:1020B0006230B4000F30B5007630B600AE30B700F5
:1020C000831257088316BB00831256088316BA0082
:1020D000831255088316B900831254088316B8007A
:1020E000BF01BE01BD01BC010A1283120D220A16F6
:1020F000031C7D285508803AD50057088316BB007D
:10210000831256088316BA00831255088316B90045
:10211000831254088316B800DB30BF000F30BE00B6
:102120004930BD007F30BC000A1283124E220A16CD
:102130007A088316BB007908BA007808B9007708D6
:10214000B8000A1283121A230A167808E400570806
:102150008316BB00831256088316BA0083125508F3
:102160008316B900831254088316B800DB30BF0011
:102170000F30BE004930BD007F30BC000A12831210
:102180004E220A167708EA007808EB007908EC007E
:102190007A08ED008316BD01831264088316BC0023
:1021A0000A128312EE210A1683146D088316BF00EB
:1021B00083126C088316BE0083126B088316BD0061
:1021C00083126A088316BC007A08C3007908C2002B
:1021D0007808C1007708C0000A1283123B230A1650
:1021E0007A08E9007908E8007808E7007708E6004F
:1021F0000330E405E408031901296408023C031DC7
:10220000252969088316BF00831268088316BE005B
:10221000831267088316BD00831266088316BC000C
:10222000DB30C3000F30C2004930C1007F30C00036
:102230000A12831281240A167A08DF007908DE0068
:102240007808DD007708DC00B029640B6D29831461
:102250008316BF01BE01BD017F30BC008312690837
:102260008316C300831268088316C20083126708AE
:102270008316C100831266088316C0000A128312F7
:102280003B230A167708EA007808EB007908EC008F
:102290007A08ED008316BF00831279088316BE000A
:1022A000831278088316BD00831277088316BC005A
:1022B000DB30C3000F30C2004930C1007F30C000A6
:1022C0000A12831281240A167A08DF007908DE00D8
:1022D0007808DD007708DC00B029831469088316CC
:1022E000BF00831268088316BE0083126708831636
:1022F000BD00831266088316BC00C301C201C10180
:102300007F30C0000A1283123B230A167708EA00C6
:102310007808EB007908EC007A08ED008316BF001E
:10232000831279088316BE00831278088316BD00D5
:10233000831277088316BC00DB30C3000F30C20065
:102340004930C1007F30C0000A12831281240A166E
:102350007A08DF007908DE007808DD007708DC0005
:10236000DB01DA01D9017F30D8005F088316BF0096
:1023700083125E088316BE0083125D088316BD00BB
:1023800083125C088316BC0083125F088316C300A7
:1023900083125E088316C20083125D088316C10093
:1023A00083125C088316C0000A12831281240A1665
:1023B0007A08DF007908DE007808DD007708DC00A5
:1023C000E5016508053C031C772A63088316BF00F6
:1023D000831262088316BE00831261088316BD0053
:1023E000831260088316BC0083125F088316C30043
:1023F00083125E088316C20083125D088316C10033
:1024000083125C088316C0000A12831281240A1604
:102410007A08E3007908E2007808E1007708E00034
:10242000650DF700F70DFC30F7057708A03E840036
:1024300083130008EA00840A0008EB00840A0008FD
:10244000EC00840A0008ED008316BF0083126C08BC
:102450008316BE0083126B088316BD0083126A08C0
:102460008316BC00831263088316C30083126208BC
:102470008316C200831261088316C10083126008AC
:102480008316C0000A12831281240A16EB01040885
:10249000EA006B10831B6B1483105B088316BF006C
:1024A00083125A088316BE00831259088316BD0092
:1024B000831258088316BC007A08C3007908C2004A
:1024C0007808C1007708C0000A1283123B230A165D
:1024D0006A08840083136B1883177A08DB00790875
:1024E000DA007808D9007708D800E50AE1296408FD
:1024F000023C03197D2A640B802A5908803AD900CE
:102500005808F7005908F8005A08F9005B08FA0063
:102510008A110A16322FF701F801F901FA01E101D7
:10252000E201E301E40160085F045E045D04031955
:10253000C92A2030E5000310D90DDA0DDB0DDC0DC2
:10254000E10DE20DE30DE40D60086402031DB22A03
:102550005F086302031DB22A5E086202031DB22AED
:102560005D086102031CC32A5D08E1025E08031CCA
:102570005E0FE2025F08031C5F0FE3026008031CAA
:10258000600FE4020314F70DF80DF90DFA0DE50BD9
:102590009B2A61308400831308000408D10050088E
:1025A000D3000319F62A4F088316BF0083124E0882
:1025B0008316BE0083124D088316BD0083124C089B
:1025C0008316BC00C301C2012030C1008230C000AC
:1025D0000A12831281240A167A08CF007908CE00E5
:1025E0007808CD007708CC00D30BD32A4F08DC0045
:1025F0004E08DB004D08DA004C08D9005908B63CFB
:10260000D900FA015A08DD00DA170310DA0CDB0CE6
:10261000DC0CFA0CF90CF80CF70CD90B052BDD1FB0
:102620001C2BF709F809F909FA09F70A0319F80A3E
:102630000319F90A0319FA0A7A08CF007908CE00BB
:102640007808CD007708CC00CF1F332BD103D116EB
:10265000CC09CD09CE09CF09CC0A0319CD0A03193B
:10266000CE0A0319CF0A3B30D8009A30D700CA30BF
:10267000D600D5010A30D30050080319D10A4F08FB
:10268000DC004E08DB004D08DA004C08D900580881
:10269000E0005708DF005608DE005508DD008B22F9
:1026A0000008CC00840A0008CD00840A0008CE008F
:1026B000840A0008CF00FD308407F708031D732B40
:1026C000500A53020319732B51080319752B0F3944
:1026D000530203196D2B0318AD2BD11BAD2B511BCE
:1026E000752B2030A72B2030D105D11E852BD11280
:1026F0005008031DD1037708D1002D30D9000A12EC
:10270000DD200A165108F700D10150085302031DBD
:10271000952B7708D1002E30D9000A12DD200A1639
:102720005108F7002030D10500303030D11EA72BE2
:10273000D1125008031DD1037708D1002D30D900E4
:102740000A12DD200A165108F700D1013030F707D0
:102750007708D9000A12DD200A165808DC0057084D
:10276000DB005608DA005508D900E001DF01DE0180
:102770000A30DD008B227A08D8007908D700780863
:10278000D6007708D500D30B3F2B8A110A161F2CD1
:10279000840183131F30830583161F149F141F1594
:1027A0009F1107309C008312A1012210A301A401F4
:1027B0000A1273280A160A12A1280A16DE0102302C
:1027C000DF000A123E200A160430DA000130DB0076
:1027D0000A12A4200A16183003178D0000308F004B
:1027E0000A12031311210A160330DA000230DB004B
:1027F0000A12A4200A161D3003178D0000308F0026
:102800000A12031311210A160330CC00C830DA0073
:102810000A1229200A16CC0B062CDE010130DF003B
:102820000A123E200A16AA012A08133C031C1F2C78
:1028300038302A07840083138001AA0A142C0A1254
:10284000CE290A167808AB00383029078400831394
:1028500030302B0280002B083D3C031D312C003012
:10286000322C01302B082B3C031D382C0030392C26
:1028700001302B082D3C031D3F2C0030402C013033
:102880002B08783C031D462C0030472C01302B08C8
:102890002F3C031D4D2C00304E2C01302B086E3C7C
:1028A0000319572C2B08D9000A12DD200A162B0811
:1028B0002B3A0319682C063A0319962C553A03193A
:1028C000C42C573A0319F22C413A0319202D4E2DEE
:1028D000DE010130DF000A123E200A162908CC0072
:1028E0000A128A1577250A168A118316BD017808FF
:1028F000BC000A128312EE210A167A08AF0079088A
:10290000AE007808AD007708AC000130A700AA013E
:102910002A08133C031C932C38302A0784008313A5
:102920008001AA0A882CA9011F2C4E2DDE0101303E
:10293000DF000A123E200A162908CC000A128A1566
:1029400077250A168A118316BD017808BC000A1281
:102950008312EE210A167A08AF007908AE007808D3
:10296000AD007708AC000230A700AA012A08133C8A
:10297000031CC12C38302A07840083138001AA0A63
:10298000B62CA9011F2C4E2DDE010130DF000A12EA
:102990003E200A162908CC000A128A1577250A1645
:1029A0008A118316BD017808BC000A128312EE2139
:1029B0000A167A08AF007908AE007808AD007708EB
:1029C000AC000330A700AA012A08133C031CEF2C1B
:1029D00038302A07840083138001AA0AE42CA90155
:1029E0001F2C4E2DDE010130DF000A123E200A1698
:1029F0002908CC000A128A1577250A168A1183162F
:102A0000BD017808BC000A128312EE210A167A086A
:102A1000AF007908AE007808AD007708AC0004304C
:102A2000A700AA012A08133C031C1D2D38302A07D1
:102A3000840083138001AA0A122DA9011F2C4E2D98
:102A4000DE010130DF000A123E200A162908CC0000
:102A50000A128A1577250A168A118316BD0178088D
:102A6000BC000A128312EE210A167A08AF00790818
:102A7000AE007808AD007708AC000530A700AA01C9
:102A80002A08133C031C4B2D38302A07840083137B
:102A90008001AA0A402DA9011F2C4E2D2B083D3C78
:102AA000031D5F2F01302702FB3E03183B2F053E1D
:102AB000622FDE010130DF000A123E200A162908CB
:102AC000CC000A128A1577250A168A118316BD01D1
:102AD0007808BC000A128312EE210A16CE010408FF
:102AE000CD004E10831B4E1483147A088316BF004A
:102AF0007908BE007808BD007708BC0083122F0853
:102B00008316C30083122E088316C20083122D0879
:102B10008316C10083122C088316C0000A12831288
:102B20003B230A164D08840083134E1883177A0836
:102B3000B7007908B6007808B5007708B4008310AC
:102B40002F088316BF0083122E088316BE0083123F
:102B50002D088316BD0083122C088316BC00831237
:102B600037088316C300831236088316C200831207
:102B700035088316C100831234088316C0000A1278
:102B800083123B230A167A08B3007908B20078084A
:102B9000B1007708B0003B2FDE010130DF000A12E0
:102BA0003E200A162908CC000A128A1577250A1633
:102BB0008A118316BD017808BC000A128312EE2127
:102BC0000A16CE010408CD004E10831B4E14831448
:102BD0007A088316BF007908BE007808BD00770820
:102BE000BC0083122F088316C30083122E0883169D
:102BF000C20083122D088316C10083122C0883168D
:102C0000C0000A1283123B230A164D088400831366
:102C10004E1883177A08B7007908B6007808B5000F
:102C20007708B40083142F088316BF0083122E0880
:102C30008316BE0083122D088316BD0083122C0854
:102C40008316BC00831237088316C300831236082C
:102C50008316C200831235088316C100831234081C
:102C60008316C0000A1283123B230A167A08B300A7
:102C70007908B2007808B1007708B0003B2FDE0178
:102C80000130DF000A123E200A162908CC000A1281
:102C90008A1577250A168A118316BD017808BC00AB
:102CA0000A128312EE210A16CE010408CD004E103E
:102CB000831B4E1483147A088316BF007908BE0064
:102CC0007808BD007708BC0083122F088316C30064
:102CD00083122E088316C20083122D088316C100AA
:102CE00083122C088316C0000A1283123B230A1693
:102CF0004D08840083134E1883177A08B7007908AB
:102D0000B6007808B5007708B4002F088316BF0016
:102D100083122E088316BE0083122D088316BD0071
:102D200083122C088316BC00831237088316C30055
:102D3000831236088316C200831235088316C10039
:102D4000831234088316C0000A12831281240A16E3
:102D50007A08B3007908B2007808B1007708B000AB
:102D60003B2FDE010130DF000A123E200A1629083F
:102D7000CC000A128A1577250A168A118316BD011E
:102D80007808BC000A128312EE210A16CE0104084C
:102D9000CD004E10831B4E1483147A088316BF0097
:102DA0007908BE007808BD007708BC0083122F08A0
:102DB0008316C30083122E088316C20083122D08C7
:102DC0008316C10083122C088316C0000A128312D6
:102DD0003B230A164D08840083134E1883177A0884
:102DE000B7007908B6007808B5007708B4002F0856
:102DF0008316BB0083122E088316BA0083122D0897
:102E00008316B90083122C088316B8008312370882
:102E10008316BF00831236088316BE00831235085E
:102E20008316BD00831234088316BC000A12831275
:102E30004E220A167A08B3007908B2007808B10069
:102E40007708B0003B2FDE010130DF000A123E2080
:102E50000A162F08CF002E08CE002D08CD002C0812
:102E6000CC0000287A08B3007908B2007808B100D5
:102E70007708B0003B2F0130DA00DB000A12A420F3
:102E80000A16233003178D0000308F000A12031337
:102E900011210A160130DA000230DB000A12A420E8
:102EA0000A16893084003308CF003208CE0031087A
:102EB000CD003008CC000230D000CD2A1F2CA90A4A
:102EC0001F2C63000A148A140A158207592DCC2D71
:062ED0003F2EB12E232F5E
:02400E00713F00
:00000001FF
;PIC16F877A
;CRC=CC38  CREATED="29-May-11 10:48"
