:1000000003308A00A12B0000D432F236EF36653A75
:10001000F2370000C434E734F4306C00D4326D3869
:100020006539613A7539611D25330000D6326E3A63
:10003000693661326F39A0274E00D6326E3A693682
:1000400061326F39A0276633000038308400831393
:100050000008031939280130F800F701F70B2E28A2
:10006000F80B2D284A30F700F70B34283728800B7F
:100070002B2808008316091089100911003086000A
:10008000831209108316091089100911FF308600A8
:10009000831289140000091500000608BE0009112A
:1000A0000D30F700F70B52280030831686008312BC
:1000B0003E08F8007808BE00BE1B42283C1C091010
:1000C0003C18091400008910000009113D08860041
:1000D000000009156B2809110D30F700F70B6E2889
:1000E0000800831609108910091100308600831258
:1000F0000911891009100F30B8002520AA012A081B
:10010000023C031C8C28BC013830BD003A2005306D
:10011000B8002520AA0A7F28BC010C30BD003A2077
:10012000BC010630BD003A20BC010130BD003A20C0
:10013000BC010230BD003A20A0018A110A12B02B86
:10014000BA013908A000B808031DA9280130B80079
:10015000A928B9080319D128390BB4288030BA006E
:1001600001303802BA07D1283908023C031DBE28E5
:100170004030BA0001303802BA07D1283908033CB0
:10018000031DC8281430BA0001303802BA07D1283C
:100190003908043C031DD1285430BA00013038021C
:1001A000BA073A088038BB00BC013B08BD003A20C2
:1001B000080037080C3A0319E428063A0319EC281A
:1001C000023A031901290629BC010130BD003A2079
:1001D0000230B80025200C29A00A2008003C031C8E
:1001E000F5282008043C031CFB280130B800200837
:1001F000B900A0200029A0010130B800B900A0205A
:100200000C29BC011030BD003A200C290130BC0083
:100210003708BD003A200C290800831603178C17F5
:100220000C140000000083120C087F3903195129B7
:100230000313AA0003170D080313AB0003170F08DD
:100240000313AC002A08B700D9202B0803178D0030
:1002500003132C0803178F0083168C170C1400004F
:10026000000083120C0D0E0D7F3903195129031361
:10027000AA0003170D080313AB0003170F0803139D
:10028000AC002A08B700D9202B0803178D000313F0
:100290002C0803178F008D0A03198F0A03130D29E9
:1002A0000317031308008E30F7002B08F8002A0804
:1002B000F900FA01F808031D67297908F800F90127
:1002C0000830F702F808031D6729F7016F290310AA
:1002D000F81B6E29F90DF80DF7036729F8138A1139
:1002E0000A12F32B37080319E229BF003B08031950
:1002F000E229BF07031883297F30BF02031CE229CC
:100300000319E22987298130BF070318E2293F0832
:10031000F700F801F901FA013808C300C3173908DA
:10032000C2003A08C1001830BF00C001411CB0290A
:100330003E08FA07031CA229F90A031DA229F80A9C
:100340000319C0173D08F907031CA929F80A031966
:10035000C0173C08B900B9173908F8070318C017C7
:10036000C00DF80CF90CFA0CC30CC20CC10C031034
:10037000BF0B95290130F7070318E229F81BC7299D
:10038000C30DFA0DF90DF80DF7030319E229C31F88
:10039000D829FA0A031DD829F90A031DD829F80A11
:1003A000031DD829F80CF90CFA0CF70A0319E229F5
:1003B0003808C0003C08C006C01FE029F817E6292D
:1003C000F813E629F701F801F901FA01080083168C
:1003D00003178C170C14000000000318162A831250
:1003E0000C087F390313AB0003170D080313AC008F
:1003F00003170F080313AD002B08B700D9202C08F2
:1004000003178D0003132D0803178F0083168C1715
:100410000C140000000083120313AA0B102A132AE5
:1004200083160317162A342A8316031783120C0D1A
:100430000E0D7F390313AB0003170D080313AC0037
:1004400003170F080313AD002B08B700D9202C08A1
:1004500003178D0003132D0803178F008D0A03194E
:100460008F0A0313AA0BE7298A110A12342CF70109
:10047000F801F901FA01BF01C001C101C2013E0842
:100480003D043C043B040319752A2030C3000310CB
:10049000B70DB80DB90DBA0DBF0DC00DC10DC20D10
:1004A0003E084202031D5E2A3D084102031D5E2AEA
:1004B0003C084002031D5E2A3B083F02031C6F2AD2
:1004C0003B08BF023C08031C3C0FC0023D08031C54
:1004D0003D0FC1023E08031C3E0FC2020314F70D7C
:1004E000F80DF90DFA0DC30B472A3F308400831332
:1004F00008000408AF002E08B1000319982A2D083F
:10050000BA002C08B9002B08B8002A08B700BE01B1
:10051000BD012030BC008230BB0072217A08AD00E2
:100520007908AC007808AB007708AA00B10B7F2AE5
:100530002D08BA002C08B9002B08B8002A08B7000B
:100540003708B63CB700FA013808BB00B8170310EB
:10055000B80CB90CBA0CFA0CF90CF80CF70CB70B78
:10056000A72ABB1FBE2AF709F809F909FA09F70AF1
:100570000319F80A0319F90A0319FA0A7A08AD00EF
:100580007908AC007808AB007708AA00AD1FD52A1F
:10059000AF03AF16AA09AB09AC09AD09AA0A031942
:1005A000AB0A0319AC0A0319AD0A3B30B6009A3006
:1005B000B500CA30B400B3010A30B1002E080319E7
:1005C000AF0A2D08BA002C08B9002B08B8002A0879
:1005D000B7003608BE003508BD003408BC0033083B
:1005E000BB0037220008AA00840A0008AB00840A76
:1005F0000008AC00840A0008AD00FD308407F7084D
:10060000031D152B2E0A31020319152B2F08031970
:10061000172B0F39310203190F2B0318472BAF1B70
:10062000472B2F1B172B2030432B2030AF05AF1E3D
:10063000252BAF122E08031DAF037708AF002D3016
:10064000B700D9202F08F700AF012E083102031D93
:10065000332B7708AF002E30B700D9202F08F700D2
:100660002030AF0500303030AF1E432BAF122E08C4
:10067000031DAF037708AF002D30B700D9202F0836
:10068000F700AF013030F7077708B700D9203608F8
:10069000BA003508B9003408B8003308B700BE0105
:1006A000BD01BC010A30BB0037227A08B6007908C8
:1006B000B5007808B4007708B300B10BE12A8A11BD
:1006C0000A12412C2B08B2002F08B206B21F6D2B64
:1006D00003110310AB1B0314A02B2B08B2002E0830
:1006E000B3002A08B30203197B2BB21FA02B030807
:1006F000013A8300A02B2F08B3002B08B302031983
:10070000872BB21FA02B0308013A8300A02B3008CF
:10071000B3002C08B3020319932BB21FA02B0308BC
:10072000013A8300A02B3108B3002D08B30203194E
:100730009F2BB21FA02B0308013A8300A02B0310AC
:100740000800840183131F30830583161F149F1430
:100750001F159F1107309C000030880083127128FC
:10076000BC010230BD003A200430B8000130B900AD
:10077000A020043003178D0000308F0003130D21DB
:100780000530B8000230B900A0200A3003178D00F0
:1007900000308F0003130D210430AA00C830B800C8
:1007A0002520AA0BCE2BBC010130BD003A208316B8
:1007B0001F109F101F159F111F1383121F139F17C8
:1007C00083169F1383121F140030F8001F08C739C7
:1007D00078049F001F151F19EB2B1E08A100AB0109
:1007E0002108AA0053297A08BA007908B9007808C4
:1007F000B8007708B7002E30BE009030BD00203022
:10080000BC007930BB0072217A08A5007908A400E9
:100810007808A3007708A2001E30B800252025081C
:10082000BA002408B9002308B8002208B700BE01A6
:10083000BD014830BC008530BB0072217A08A90098
:100840007908A8007808A7007708A6000130B8004A
:10085000B900A0200E3003178D0000308F00031068
:100860000C300313AA00E729893084002908AD0061
:100870002808AC002708AB002608AA000230AE000A
:10088000792AAD01AC01AB018430AA002908B1007E
:100890002808B0002708AF002608AE00622303181E
:1008A000532C031D632C8316081183120815013085
:1008B000B8000230B900A020163003178D000030B8
:1008C0008F0003130D212908AD002808AC0027086C
:1008D000AB002608AA00B101B001AF018430AE0020
:1008E0006223031C832C8316081183120811013024
:1008F000B8000230B900A0201D3003178D00003071
:0A0900008F0003130D21EA2B6300A2
:02400E00713F00
:00000001FF
;PIC16F877A
;CRC=9695  CREATED="29-May-11 21:57"
