:1000000000308A0053280000FF00030E8301A10086
:100010000A08A0008A010408A2007708A300780853
:10002000A4007908A5007A08A600831383128C30F7
:100030008400001C1D280C182E2822088400230888
:10004000F7002408F8002508F9002608FA0020081F
:100050008A00210E8300FF0E7F0E09008A110A120A
:100060003128831608100130831288060B308F0068
:10007000DC308E000C108A110A121D2829308400F1
:1000800083130008031952280130F800F701F70B19
:100090004728F80B46284A30F700F70B4D28502820
:1000A000800B44280800840183131F3083058316C6
:1000B0001F149F141F159F1107309C00FF308312DF
:1000C000A7000430A800FA30A9003E20A80B63283E
:1000D00083160108C03902388100B53083129000C0
:1000E00083160C14C03083128B040B308F00DC306D
:1000F0008E00FF30831687008312A700003083161E
:1001000088008312A70083168701013083128700BD
:1001100027142708831687008312071C9A28831642
:100120008810023083128806A800FA30A9003E2009
:08013000A80B95288828630044
:02400E00313F40
:00000001FF
;PIC16F877A
;CRC=F3A9  CREATED="05-jun.-14 13:22"
