:1000000001308A00932900000A108A100A11820721
:1000100028340C340134063420104536E531F434EC
:10002000F630A0240000D232F637EC3AE3346F37D2
:10003000A1100000253084008313000803192E2826
:100040000130F800F701F70B2328F80B22284A307B
:10005000F700F70B29282C28800B202808002C18E3
:100060003328071234280716201220088316870029
:100070008312AC183D2887123E288716A01220084C
:100080008316870083122C1947280713482807175F
:1000900020132008831687008312AC195128871378
:1000A00052288717A01320088316870000008312A8
:1000B0002011200883168700831207155F2820115E
:1000C000200883168700831207110800AD01201154
:1000D00020088316870083120715000020162008C9
:1000E0008316870083122D10071A2D14A0162008DE
:1000F000831687008312AD10871AAD1420172008CD
:100100008316870083122D11071B2D15A0172008B9
:10011000831687008312AD11871BAD1520112008AF
:1001200083168700831207112D08F8000800A0111C
:1001300020088316870083128711A01020088316D9
:10014000870083128714000066207808AC006620C0
:100150007808AB002C0EF700F030F70577082B0479
:10016000F8007808AB00AB1B9D28A9080319BF282D
:10017000A01120088316870083128715C528A011B7
:10018000200883168700831287110000A010200822
:100190008316870083128710000020112008831621
:1001A0008700831207112A0EAB000F30AB052B0816
:1001B000AC002F202A080F39AB00AC002F2008001C
:1001C000A01120088316870083128711A010200831
:1001D000831687008312871020112008831687005A
:1001E000831207110F30A5001A20A1012108023C3B
:1001F000031C02290330AC002F200530A5001A2073
:10020000A10AF6280230AC002F20A1012108033CEE
:10021000031C132921080420A200A9012208AA0016
:100220009720A10A06298A110A12A229260B192948
:100230001C294030A7001D29A70101302502A7076E
:1002400027088038A800A9012808AA0097200800DC
:1002500024080C3A03193329063A03193B29023AB8
:10026000031941294629A9010130AA00972002302B
:10027000A5001A204C290130A5000230A600162145
:100280004C29A9011030AA0097204C290130A9005F
:100290002408AA0097204C290800831603178C17FE
:1002A0000C140000000083120C087F3903199129F7
:1002B0000313A10003170D080313A20003170F086F
:1002C0000313A3002108A4002821220803178D008E
:1002D0000313230803178F0083168C170C140000D8
:1002E000000083120C0D0E0D7F39031991290313A1
:1002F000A10003170D080313A20003170F0803132F
:10030000A3002108A4002821220803178D0003134D
:10031000230803178F008D0A03198F0A03134D2931
:10032000031703130800840183131F30830583160A
:100330001F149F141F159F1107309C00FF3083125C
:10034000A000E0280230A100FA30A5001A20A10B7D
:10035000A4290330A5000130A60016210C30031794
:100360008D0000308F0003134D210230A100FA30C0
:10037000A5001A20A10BB7290C30A40028210330B6
:10038000A5000130A6001621133003178D000030A0
:0A0390008F0003134D21BF29630005
:02400E00713F00
:00000001FF
;PIC16F877A
;CRC=A512  CREATED="08-Nov-11 22:53"
