:1000000000308A001B280000213084008313000880
:10001000031918280130F800F701F70B0D28F80B29
:100020000C284A30F700F70B13281628800B0A28F3
:100030008A110A124628840183131F308305831610
:100040001F149F141F159F1107309C00003086005D
:100050001F109F141F159F151F1383121F139F1727
:1000600083169F1383121F14F8001F08C7397804E2
:100070009F001F151F193A281E08A000831686012D
:100080008312200886006430A10004283928630008
:02400E00713F00
:00000001FF
;PIC16F877A
;CRC=BA95  CREATED="23-May-11 12:27"
