:1000000000308A001928000037308400831300086C
:10001000031918280130F800F701F70B0D28F80B29
:100020000C284A30F700F70B13281628800B0A28F3
:100030000800840183131F30830583161F149F1447
:100040001F159F1107309C00FF308312A0008316FC
:100050008914891489140030860087008312A00057
:1000600083168800C0308312A100F930A200A430AA
:10007000A300B030A4009930A5009230A6008330D0
:10008000A700F830A8008030A9009830AA00C0303E
:10009000AB00F930AC00A430AD00B030AE00993008
:1000A000AF009230B0008330B100F830B200803041
:1000B000B3009830B400B501B60121303507840093
:1000C00083130008B7008316860183123708860061
:1000D0002B303607840083130008B7000030A000DF
:1000E0008316870183123708870021303507840083
:1000F00083130008B700831688018312370888002D
:10010000831605148312051CBD280A30B70004208D
:10011000831605148312051C91280A30B7000420A9
:100120008828B50A3508093C03189D28B501B60A88
:100130003608093C03189D28B60121303507840094
:1001400083130008B7000030A000831687018312D4
:10015000370887002B303607840083130008B70068
:10016000831688018312370888000A30B7000420FC
:100170008316860183122208860083168514831253
:10018000851CFA280A30B7000420831685148312D0
:10019000851CCE280A30B7000420C528B50A3508CA
:1001A000093C0318DA28B501B60A3608093C0318D9
:1001B000DA28B60121303507840083130008B70020
:1001C0000030A000831687018312370887002B3088
:1001D0003607840083130008B70083168801831252
:1001E000370888000A30B70004208316860183127E
:1001F00023088600831605158312051D37290A304A
:10020000B7000420831605158312051D0B290A303B
:10021000B70004200229B50A3508093C031817293C
:10022000B501B60A3608093C03181729B601213072
:100230003507840083130008B7000030A000831640
:1002400087018312370887002B3036078400831319
:100250000008B700831688018312370888000A3027
:10026000B7000420831686018312240886008316B3
:1002700085158312851D74290A30B7000420831662
:1002800085158312851D48290A30B70004203F29AF
:10029000B50A3508093C03185429B501B60A3608D1
:1002A000093C03185429B601213035078400831313
:1002B0000008B7000030A0008316870183123708BA
:1002C00087002B303607840083130008B70083169D
:1002D00088018312370888000A30B700042083168B
:0C02E00086018312250886008028630038
:02400E00713F00
:00000001FF
;PIC16F877A
;CRC=757A  CREATED="07-May-11 06:33"
