:1000000000308A004E280000FF00030E8301A1008B
:100010000A08A0008A010408A2007708A300780853
:10002000A4007908A5007A08A600831383128B1D0B
:100030001B280B182C28220884002308F70024080A
:10004000F8002508F9002608FA0020088A00210E89
:100050008300FF0E7F0E09008A110A122F2806085E
:10006000EF3A03193D28303A03194028603A031942
:100070004328C03A031946284928063088004A28F0
:100080005B3088004A284F3088004A286630880054
:100090004A284A280B108A110A121B28840183134C
:1000A0001F30830583161F149F141F159F11FF30E7
:1000B00086000030880083128B15C0308B048801C5
:0400C0006028630051
:02400E00713F00
:00000001FF
;PIC16F877
;CRC=4BBB  CREATED="06-Oct-11 12:48"
