:1000000000308A0019280000233084008313000880
:10001000031918280130F800F701F70B0D28F80B29
:100020000C284A30F700F70B13281628800B0A28F3
:100030000800840183131F30830583161F149F1447
:100040001F159F1107309C00FF308312A100FF3065
:10005000831687008312A1000030831688000811E0
:100060008312081121162108831687008312071EA8
:10007000422883160811831208158316081183126B
:1000800008113228A1162108831687008312871EC3
:10009000522883160811831208158316081183123B
:1000A0000811422821172108831687008312071F91
:1000B000622883160811831208158316081183120B
:1000C00008115228A1172108831687008312871F61
:1000D000862883160811831208152830A200E33001
:1000E000A3000420A20B6F280130A3000420831674
:1000F0000811831208112830A200E330A300042065
:10010000A20B7D280130A30004206228322863005E
:02400E00713F00
:00000001FF
;PIC16F877A
;CRC=016F  CREATED="28-Sep-11 14:13"
