:020000040000FA
:100000008316031306309F000F30880000308600EF
:1000100085008700831203130510003088018701D3
:10002000860108181D2888181D2805103A2008196F
:100030002A2888192A2885101128051408198514DA
:100040008819851408088700870A071A4020071EA8
:100050003720112885140818051488180514080875
:100060008700870A071A4020071E3D2017284F30B7
:100070008600080001308600080012308600080063
:06008000063086000800B6
:02400E00313F40
:00000001FF
